{
  "contractName": "PvContract",
  "abi": [
    {
      "inputs": [],
      "payable": false,
      "stateMutability": "nonpayable",
      "type": "constructor"
    },
    {
      "constant": true,
      "inputs": [
        {
          "internalType": "address",
          "name": "",
          "type": "address"
        },
        {
          "internalType": "uint256",
          "name": "",
          "type": "uint256"
        }
      ],
      "name": "citizenImmigrations",
      "outputs": [
        {
          "internalType": "address",
          "name": "citizenImmigrationAddress",
          "type": "address"
        },
        {
          "internalType": "address",
          "name": "citizenAddress",
          "type": "address"
        },
        {
          "internalType": "string",
          "name": "immigrationName",
          "type": "string"
        },
        {
          "internalType": "string",
          "name": "branchId",
          "type": "string"
        },
        {
          "internalType": "uint256",
          "name": "immigrationTime",
          "type": "uint256"
        },
        {
          "internalType": "uint256",
          "name": "isCheckIn",
          "type": "uint256"
        },
        {
          "internalType": "uint256",
          "name": "signed",
          "type": "uint256"
        },
        {
          "internalType": "uint256",
          "name": "signedDate",
          "type": "uint256"
        }
      ],
      "payable": false,
      "stateMutability": "view",
      "type": "function"
    },
    {
      "constant": true,
      "inputs": [
        {
          "internalType": "uint256",
          "name": "",
          "type": "uint256"
        }
      ],
      "name": "citizenPassports",
      "outputs": [
        {
          "internalType": "address",
          "name": "citizenPassportAddress",
          "type": "address"
        },
        {
          "internalType": "address",
          "name": "citizenAddress",
          "type": "address"
        },
        {
          "internalType": "uint256",
          "name": "passportAgencyId",
          "type": "uint256"
        },
        {
          "internalType": "uint256",
          "name": "passportBranchId",
          "type": "uint256"
        },
        {
          "internalType": "string",
          "name": "passportType",
          "type": "string"
        },
        {
          "internalType": "uint256",
          "name": "issuanceExpiry",
          "type": "uint256"
        },
        {
          "internalType": "uint256",
          "name": "issuanceDate",
          "type": "uint256"
        },
        {
          "internalType": "string",
          "name": "status",
          "type": "string"
        },
        {
          "internalType": "uint256",
          "name": "signed",
          "type": "uint256"
        },
        {
          "internalType": "uint256",
          "name": "signedDate",
          "type": "uint256"
        }
      ],
      "payable": false,
      "stateMutability": "view",
      "type": "function"
    },
    {
      "constant": true,
      "inputs": [
        {
          "internalType": "address",
          "name": "",
          "type": "address"
        },
        {
          "internalType": "uint256",
          "name": "",
          "type": "uint256"
        }
      ],
      "name": "citizenVisas",
      "outputs": [
        {
          "internalType": "address",
          "name": "citizenVisaAddress",
          "type": "address"
        },
        {
          "internalType": "address",
          "name": "citizenAddress",
          "type": "address"
        },
        {
          "internalType": "address",
          "name": "citizenPassportAddress",
          "type": "address"
        },
        {
          "internalType": "uint256",
          "name": "foreignVisaAgencyBranchId",
          "type": "uint256"
        },
        {
          "internalType": "uint256",
          "name": "foreignVisaAgencyId",
          "type": "uint256"
        },
        {
          "internalType": "uint256",
          "name": "issuanceDate",
          "type": "uint256"
        },
        {
          "internalType": "uint256",
          "name": "issuanceExpiry",
          "type": "uint256"
        },
        {
          "internalType": "uint256",
          "name": "signed",
          "type": "uint256"
        },
        {
          "internalType": "uint256",
          "name": "signedDate",
          "type": "uint256"
        }
      ],
      "payable": false,
      "stateMutability": "view",
      "type": "function"
    },
    {
      "constant": true,
      "inputs": [
        {
          "internalType": "address",
          "name": "",
          "type": "address"
        }
      ],
      "name": "citizens",
      "outputs": [
        {
          "internalType": "string",
          "name": "citizenName",
          "type": "string"
        },
        {
          "internalType": "string",
          "name": "identityNo",
          "type": "string"
        },
        {
          "internalType": "address",
          "name": "citizenAddress",
          "type": "address"
        },
        {
          "internalType": "uint256",
          "name": "userType",
          "type": "uint256"
        },
        {
          "internalType": "uint256",
          "name": "portalId",
          "type": "uint256"
        },
        {
          "internalType": "int256",
          "name": "passportIndex",
          "type": "int256"
        },
        {
          "internalType": "bool",
          "name": "exists",
          "type": "bool"
        }
      ],
      "payable": false,
      "stateMutability": "view",
      "type": "function"
    },
    {
      "constant": true,
      "inputs": [],
      "name": "name",
      "outputs": [
        {
          "internalType": "string",
          "name": "",
          "type": "string"
        }
      ],
      "payable": false,
      "stateMutability": "view",
      "type": "function"
    },
    {
      "constant": true,
      "inputs": [],
      "name": "passportCount",
      "outputs": [
        {
          "internalType": "uint256",
          "name": "",
          "type": "uint256"
        }
      ],
      "payable": false,
      "stateMutability": "view",
      "type": "function"
    },
    {
      "constant": true,
      "inputs": [
        {
          "internalType": "address",
          "name": "",
          "type": "address"
        },
        {
          "internalType": "uint256",
          "name": "",
          "type": "uint256"
        }
      ],
      "name": "pvCitizenImmigrations",
      "outputs": [
        {
          "internalType": "address",
          "name": "citizenAddress",
          "type": "address"
        },
        {
          "internalType": "uint256",
          "name": "citizenImmigrationId",
          "type": "uint256"
        }
      ],
      "payable": false,
      "stateMutability": "view",
      "type": "function"
    },
    {
      "constant": true,
      "inputs": [
        {
          "internalType": "address",
          "name": "",
          "type": "address"
        },
        {
          "internalType": "uint256",
          "name": "",
          "type": "uint256"
        }
      ],
      "name": "pvCitizenPassports",
      "outputs": [
        {
          "internalType": "address",
          "name": "citizenAddress",
          "type": "address"
        },
        {
          "internalType": "uint256",
          "name": "citizenPassportId",
          "type": "uint256"
        }
      ],
      "payable": false,
      "stateMutability": "view",
      "type": "function"
    },
    {
      "constant": true,
      "inputs": [
        {
          "internalType": "address",
          "name": "",
          "type": "address"
        },
        {
          "internalType": "uint256",
          "name": "",
          "type": "uint256"
        }
      ],
      "name": "pvCitizenVisas",
      "outputs": [
        {
          "internalType": "address",
          "name": "citizenAddress",
          "type": "address"
        },
        {
          "internalType": "uint256",
          "name": "citizenVisaId",
          "type": "uint256"
        }
      ],
      "payable": false,
      "stateMutability": "view",
      "type": "function"
    },
    {
      "constant": true,
      "inputs": [
        {
          "internalType": "uint256",
          "name": "",
          "type": "uint256"
        }
      ],
      "name": "pvCitizens",
      "outputs": [
        {
          "internalType": "string",
          "name": "citizenName",
          "type": "string"
        },
        {
          "internalType": "string",
          "name": "identityNo",
          "type": "string"
        },
        {
          "internalType": "address",
          "name": "citizenAddress",
          "type": "address"
        }
      ],
      "payable": false,
      "stateMutability": "view",
      "type": "function"
    },
    {
      "constant": true,
      "inputs": [],
      "name": "visaCount",
      "outputs": [
        {
          "internalType": "uint256",
          "name": "",
          "type": "uint256"
        }
      ],
      "payable": false,
      "stateMutability": "view",
      "type": "function"
    },
    {
      "constant": false,
      "inputs": [
        {
          "internalType": "string",
          "name": "citizenName",
          "type": "string"
        },
        {
          "internalType": "string",
          "name": "identityNo",
          "type": "string"
        },
        {
          "internalType": "uint256",
          "name": "userType",
          "type": "uint256"
        },
        {
          "internalType": "uint256",
          "name": "portalId",
          "type": "uint256"
        }
      ],
      "name": "createCitizen",
      "outputs": [],
      "payable": false,
      "stateMutability": "nonpayable",
      "type": "function"
    },
    {
      "constant": false,
      "inputs": [
        {
          "internalType": "uint256",
          "name": "passportAgencyId",
          "type": "uint256"
        },
        {
          "internalType": "uint256",
          "name": "passportBranchId",
          "type": "uint256"
        },
        {
          "internalType": "string",
          "name": "passportType",
          "type": "string"
        },
        {
          "internalType": "uint256",
          "name": "issuanceExpiry",
          "type": "uint256"
        },
        {
          "internalType": "uint256",
          "name": "issuanceDate",
          "type": "uint256"
        },
        {
          "internalType": "string",
          "name": "status",
          "type": "string"
        }
      ],
      "name": "createCitizenPassport",
      "outputs": [],
      "payable": false,
      "stateMutability": "nonpayable",
      "type": "function"
    },
    {
      "constant": false,
      "inputs": [
        {
          "internalType": "uint256",
          "name": "foreignVisaAgencyBranchId",
          "type": "uint256"
        },
        {
          "internalType": "uint256",
          "name": "foreignVisaAgencyId",
          "type": "uint256"
        },
        {
          "internalType": "uint256",
          "name": "issuanceDate",
          "type": "uint256"
        },
        {
          "internalType": "uint256",
          "name": "issuanceExpiry",
          "type": "uint256"
        }
      ],
      "name": "createCitizenVisa",
      "outputs": [],
      "payable": false,
      "stateMutability": "nonpayable",
      "type": "function"
    },
    {
      "constant": false,
      "inputs": [
        {
          "internalType": "string",
          "name": "immigrationName",
          "type": "string"
        },
        {
          "internalType": "string",
          "name": "branchId",
          "type": "string"
        },
        {
          "internalType": "uint256",
          "name": "immigrationTime",
          "type": "uint256"
        },
        {
          "internalType": "uint256",
          "name": "isCheckIn",
          "type": "uint256"
        }
      ],
      "name": "createCitizenImmigration",
      "outputs": [],
      "payable": false,
      "stateMutability": "nonpayable",
      "type": "function"
    },
    {
      "constant": true,
      "inputs": [
        {
          "internalType": "address",
          "name": "citizenAddress",
          "type": "address"
        }
      ],
      "name": "getCitizenPassport",
      "outputs": [
        {
          "components": [
            {
              "internalType": "address",
              "name": "citizenPassportAddress",
              "type": "address"
            },
            {
              "internalType": "address",
              "name": "citizenAddress",
              "type": "address"
            },
            {
              "internalType": "uint256",
              "name": "passportAgencyId",
              "type": "uint256"
            },
            {
              "internalType": "uint256",
              "name": "passportBranchId",
              "type": "uint256"
            },
            {
              "internalType": "string",
              "name": "passportType",
              "type": "string"
            },
            {
              "internalType": "uint256",
              "name": "issuanceExpiry",
              "type": "uint256"
            },
            {
              "internalType": "uint256",
              "name": "issuanceDate",
              "type": "uint256"
            },
            {
              "internalType": "string",
              "name": "status",
              "type": "string"
            },
            {
              "internalType": "uint256",
              "name": "signed",
              "type": "uint256"
            },
            {
              "internalType": "uint256",
              "name": "signedDate",
              "type": "uint256"
            }
          ],
          "internalType": "struct PvContract.CitizenPassport",
          "name": "",
          "type": "tuple"
        }
      ],
      "payable": false,
      "stateMutability": "view",
      "type": "function"
    },
    {
      "constant": true,
      "inputs": [
        {
          "internalType": "address",
          "name": "citizen",
          "type": "address"
        }
      ],
      "name": "getCitizenVisas",
      "outputs": [
        {
          "components": [
            {
              "internalType": "address",
              "name": "citizenVisaAddress",
              "type": "address"
            },
            {
              "internalType": "address",
              "name": "citizenAddress",
              "type": "address"
            },
            {
              "internalType": "address",
              "name": "citizenPassportAddress",
              "type": "address"
            },
            {
              "internalType": "uint256",
              "name": "foreignVisaAgencyBranchId",
              "type": "uint256"
            },
            {
              "internalType": "uint256",
              "name": "foreignVisaAgencyId",
              "type": "uint256"
            },
            {
              "internalType": "uint256",
              "name": "issuanceDate",
              "type": "uint256"
            },
            {
              "internalType": "uint256",
              "name": "issuanceExpiry",
              "type": "uint256"
            },
            {
              "internalType": "uint256",
              "name": "signed",
              "type": "uint256"
            },
            {
              "internalType": "uint256",
              "name": "signedDate",
              "type": "uint256"
            }
          ],
          "internalType": "struct PvContract.CitizenVisa[]",
          "name": "",
          "type": "tuple[]"
        }
      ],
      "payable": false,
      "stateMutability": "view",
      "type": "function"
    },
    {
      "constant": true,
      "inputs": [
        {
          "internalType": "address",
          "name": "citizen",
          "type": "address"
        }
      ],
      "name": "getCitizenImmigrations",
      "outputs": [
        {
          "components": [
            {
              "internalType": "address",
              "name": "citizenImmigrationAddress",
              "type": "address"
            },
            {
              "internalType": "address",
              "name": "citizenAddress",
              "type": "address"
            },
            {
              "internalType": "string",
              "name": "immigrationName",
              "type": "string"
            },
            {
              "internalType": "string",
              "name": "branchId",
              "type": "string"
            },
            {
              "internalType": "uint256",
              "name": "immigrationTime",
              "type": "uint256"
            },
            {
              "internalType": "uint256",
              "name": "isCheckIn",
              "type": "uint256"
            },
            {
              "internalType": "uint256",
              "name": "signed",
              "type": "uint256"
            },
            {
              "internalType": "uint256",
              "name": "signedDate",
              "type": "uint256"
            }
          ],
          "internalType": "struct PvContract.CitizenImmigration[]",
          "name": "",
          "type": "tuple[]"
        }
      ],
      "payable": false,
      "stateMutability": "view",
      "type": "function"
    },
    {
      "constant": false,
      "inputs": [
        {
          "internalType": "address",
          "name": "citizenAddress",
          "type": "address"
        },
        {
          "internalType": "uint256",
          "name": "signed",
          "type": "uint256"
        }
      ],
      "name": "signPassport",
      "outputs": [],
      "payable": false,
      "stateMutability": "nonpayable",
      "type": "function"
    },
    {
      "constant": false,
      "inputs": [
        {
          "internalType": "address",
          "name": "citizenAddress",
          "type": "address"
        },
        {
          "internalType": "uint256",
          "name": "index",
          "type": "uint256"
        },
        {
          "internalType": "uint256",
          "name": "signed",
          "type": "uint256"
        }
      ],
      "name": "signVisa",
      "outputs": [],
      "payable": false,
      "stateMutability": "nonpayable",
      "type": "function"
    },
    {
      "constant": false,
      "inputs": [
        {
          "internalType": "address",
          "name": "citizenAddress",
          "type": "address"
        },
        {
          "internalType": "uint256",
          "name": "index",
          "type": "uint256"
        },
        {
          "internalType": "uint256",
          "name": "signed",
          "type": "uint256"
        }
      ],
      "name": "signImmigration",
      "outputs": [],
      "payable": false,
      "stateMutability": "nonpayable",
      "type": "function"
    }
  ],
  "bytecode": "0x60806040526000600155600060025534801561001a57600080fd5b50614d9c8061002a6000396000f3fe608060405234801561001057600080fd5b50600436106101375760003560e01c806393144696116100b8578063d4f910a71161007c578063d4f910a714610386578063e8da8d36146103bc578063e900c973146103d8578063f1d91f0f146103f4578063fc11936b14610425578063fcc4bcc91461045657610137565b806393144696146102c85780639d43114a14610300578063a4193e381461031e578063a761185a1461033a578063c9cb26891461035657610137565b80635a4ec45a116100ff5780635a4ec45a1461021257806362185ad81461023057806371c7c0241461024c5780638ccbbac41461027c57806390e8757a146102ac57610137565b806306fdde031461013c5780631e43aa0b1461015a5780631efce1031461018b578063256cc4f5146101c457806341491d7c146101f6575b600080fd5b61014461048d565b604051610151919061496d565b60405180910390f35b610174600480360361016f9190810190613db5565b61052b565b604051610182929190614900565b60405180910390f35b6101a560048036036101a09190810190613ed3565b610589565b6040516101bb9a99989796959493929190614856565b60405180910390f35b6101de60048036036101d99190810190613ed3565b61075a565b6040516101ed9392919061498f565b60405180910390f35b610210600480360361020b9190810190613db5565b6108e1565b005b61021a610f73565b6040516102279190614b73565b60405180910390f35b61024a60048036036102459190810190613e40565b610f79565b005b61026660048036036102619190810190613d8c565b61126e565b6040516102739190614b51565b60405180910390f35b61029660048036036102919190810190613d8c565b611750565b6040516102a3919061494b565b60405180910390f35b6102c660048036036102c19190810190613e40565b6119f8565b005b6102e260048036036102dd9190810190613db5565b611d83565b6040516102f79998979695949392919061473d565b60405180910390f35b610308611e4b565b6040516103159190614b73565b60405180910390f35b61033860048036036103339190810190613df1565b611e51565b005b610354600480360361034f9190810190613df1565b612249565b005b610370600480360361036b9190810190613d8c565b6126f8565b60405161037d9190614929565b60405180910390f35b6103a0600480360361039b9190810190613d8c565b612a7a565b6040516103b397969594939291906149d4565b60405180910390f35b6103d660048036036103d19190810190613efc565b612c19565b005b6103f260048036036103ed9190810190613fb5565b612eac565b005b61040e60048036036104099190810190613db5565b613709565b60405161041c929190614900565b60405180910390f35b61043f600480360361043a9190810190613db5565b613767565b60405161044d929190614900565b60405180910390f35b610470600480360361046b9190810190613db5565b6137c5565b6040516104849897969594939291906147ca565b60405180910390f35b60008054600181600116156101000203166002900480601f0160208091040260200160405190810160405280929190818152602001828054600181600116156101000203166002900480156105235780601f106104f857610100808354040283529160200191610523565b820191906000526020600020905b81548152906001019060200180831161050657829003601f168201915b505050505081565b6008602052816000526040600020818154811061054457fe5b9060005260206000209060020201600091509150508060000160009054906101000a900473ffffffffffffffffffffffffffffffffffffffff16908060010154905082565b6009818154811061059657fe5b90600052602060002090600a02016000915090508060000160009054906101000a900473ffffffffffffffffffffffffffffffffffffffff16908060010160009054906101000a900473ffffffffffffffffffffffffffffffffffffffff1690806002015490806003015490806004018054600181600116156101000203166002900480601f01602080910402602001604051908101604052809291908181526020018280546001816001161561010002031660029004801561069a5780601f1061066f5761010080835404028352916020019161069a565b820191906000526020600020905b81548152906001019060200180831161067d57829003601f168201915b505050505090806005015490806006015490806007018054600181600116156101000203166002900480601f0160208091040260200160405190810160405280929190818152602001828054600181600116156101000203166002900480156107445780601f1061071957610100808354040283529160200191610744565b820191906000526020600020905b81548152906001019060200180831161072757829003601f168201915b505050505090806008015490806009015490508a565b600a818154811061076757fe5b9060005260206000209060030201600091509050806000018054600181600116156101000203166002900480601f0160208091040260200160405190810160405280929190818152602001828054600181600116156101000203166002900480156108135780601f106107e857610100808354040283529160200191610813565b820191906000526020600020905b8154815290600101906020018083116107f657829003601f168201915b505050505090806001018054600181600116156101000203166002900480601f0160208091040260200160405190810160405280929190818152602001828054600181600116156101000203166002900480156108b15780601f10610886576101008083540402835291602001916108b1565b820191906000526020600020905b81548152906001019060200180831161089457829003601f168201915b5050505050908060020160009054906101000a900473ffffffffffffffffffffffffffffffffffffffff16905083565b60003390506071600360008373ffffffffffffffffffffffffffffffffffffffff1673ffffffffffffffffffffffffffffffffffffffff168152602001908152602001600020600301541461096b576040517f08c379a000000000000000000000000000000000000000000000000000000000815260040161096290614a91565b60405180910390fd5b610973613997565b600360008573ffffffffffffffffffffffffffffffffffffffff1673ffffffffffffffffffffffffffffffffffffffff1681526020019081526020016000206040518060e0016040529081600082018054600181600116156101000203166002900480601f016020809104026020016040519081016040528092919081815260200182805460018160011615610100020316600290048015610a565780601f10610a2b57610100808354040283529160200191610a56565b820191906000526020600020905b815481529060010190602001808311610a3957829003601f168201915b50505050508152602001600182018054600181600116156101000203166002900480601f016020809104026020016040519081016040528092919081815260200182805460018160011615610100020316600290048015610af85780601f10610acd57610100808354040283529160200191610af8565b820191906000526020600020905b815481529060010190602001808311610adb57829003601f168201915b505050505081526020016002820160009054906101000a900473ffffffffffffffffffffffffffffffffffffffff1673ffffffffffffffffffffffffffffffffffffffff1673ffffffffffffffffffffffffffffffffffffffff1681526020016003820154815260200160048201548152602001600582015481526020016006820160009054906101000a900460ff161515151581525050905060008160a001519050610ba36139ec565b60098281548110610bb057fe5b90600052602060002090600a0201604051806101400160405290816000820160009054906101000a900473ffffffffffffffffffffffffffffffffffffffff1673ffffffffffffffffffffffffffffffffffffffff1673ffffffffffffffffffffffffffffffffffffffff1681526020016001820160009054906101000a900473ffffffffffffffffffffffffffffffffffffffff1673ffffffffffffffffffffffffffffffffffffffff1673ffffffffffffffffffffffffffffffffffffffff1681526020016002820154815260200160038201548152602001600482018054600181600116156101000203166002900480601f016020809104026020016040519081016040528092919081815260200182805460018160011615610100020316600290048015610d235780601f10610cf857610100808354040283529160200191610d23565b820191906000526020600020905b815481529060010190602001808311610d0657829003601f168201915b505050505081526020016005820154815260200160068201548152602001600782018054600181600116156101000203166002900480601f016020809104026020016040519081016040528092919081815260200182805460018160011615610100020316600290048015610dd95780601f10610dae57610100808354040283529160200191610dd9565b820191906000526020600020905b815481529060010190602001808311610dbc57829003601f168201915b5050505050815260200160088201548152602001600982015481525050905083816000019073ffffffffffffffffffffffffffffffffffffffff16908173ffffffffffffffffffffffffffffffffffffffff1681525050848161010001818152505042816101200181815250508060098381548110610e5457fe5b90600052602060002090600a020160008201518160000160006101000a81548173ffffffffffffffffffffffffffffffffffffffff021916908373ffffffffffffffffffffffffffffffffffffffff16021790555060208201518160010160006101000a81548173ffffffffffffffffffffffffffffffffffffffff021916908373ffffffffffffffffffffffffffffffffffffffff16021790555060408201518160020155606082015181600301556080820151816004019080519060200190610f20929190613a6b565b5060a0820151816005015560c0820151816006015560e0820151816007019080519060200190610f51929190613a6b565b5061010082015181600801556101208201518160090155905050505050505050565b60025481565b6000339050600360008273ffffffffffffffffffffffffffffffffffffffff1673ffffffffffffffffffffffffffffffffffffffff16815260200190815260200160002060060160009054906101000a900460ff161561100e576040517f08c379a000000000000000000000000000000000000000000000000000000000815260040161100590614ad1565b60405180910390fd5b6040518060e001604052808681526020018581526020013373ffffffffffffffffffffffffffffffffffffffff1681526020018481526020018381526020017fffffffffffffffffffffffffffffffffffffffffffffffffffffffffffffffff815260200160011515815250600360008373ffffffffffffffffffffffffffffffffffffffff1673ffffffffffffffffffffffffffffffffffffffff16815260200190815260200160002060008201518160000190805190602001906110d5929190613a6b565b5060208201518160010190805190602001906110f2929190613a6b565b5060408201518160020160006101000a81548173ffffffffffffffffffffffffffffffffffffffff021916908373ffffffffffffffffffffffffffffffffffffffff160217905550606082015181600301556080820151816004015560a0820151816005015560c08201518160060160006101000a81548160ff021916908315150217905550905050606683141561126757600a60405180606001604052808781526020018681526020013373ffffffffffffffffffffffffffffffffffffffff168152509080600181540180825580915050906001820390600052602060002090600302016000909192909190915060008201518160000190805190602001906111fe929190613a6b565b50602082015181600101908051906020019061121b929190613a6b565b5060408201518160020160006101000a81548173ffffffffffffffffffffffffffffffffffffffff021916908373ffffffffffffffffffffffffffffffffffffffff1602179055505050505b5050505050565b6112766139ec565b61127e613997565b600360008473ffffffffffffffffffffffffffffffffffffffff1673ffffffffffffffffffffffffffffffffffffffff1681526020019081526020016000206040518060e0016040529081600082018054600181600116156101000203166002900480601f0160208091040260200160405190810160405280929190818152602001828054600181600116156101000203166002900480156113615780601f1061133657610100808354040283529160200191611361565b820191906000526020600020905b81548152906001019060200180831161134457829003601f168201915b50505050508152602001600182018054600181600116156101000203166002900480601f0160208091040260200160405190810160405280929190818152602001828054600181600116156101000203166002900480156114035780601f106113d857610100808354040283529160200191611403565b820191906000526020600020905b8154815290600101906020018083116113e657829003601f168201915b505050505081526020016002820160009054906101000a900473ffffffffffffffffffffffffffffffffffffffff1673ffffffffffffffffffffffffffffffffffffffff1673ffffffffffffffffffffffffffffffffffffffff1681526020016003820154815260200160048201548152602001600582015481526020016006820160009054906101000a900460ff161515151581525050905060008160a0015112156114e5576040517f08c379a00000000000000000000000000000000000000000000000000000000081526004016114dc90614a71565b60405180910390fd5b6114ed6139ec565b60098260a00151815481106114fe57fe5b90600052602060002090600a0201604051806101400160405290816000820160009054906101000a900473ffffffffffffffffffffffffffffffffffffffff1673ffffffffffffffffffffffffffffffffffffffff1673ffffffffffffffffffffffffffffffffffffffff1681526020016001820160009054906101000a900473ffffffffffffffffffffffffffffffffffffffff1673ffffffffffffffffffffffffffffffffffffffff1673ffffffffffffffffffffffffffffffffffffffff1681526020016002820154815260200160038201548152602001600482018054600181600116156101000203166002900480601f0160208091040260200160405190810160405280929190818152602001828054600181600116156101000203166002900480156116715780601f1061164657610100808354040283529160200191611671565b820191906000526020600020905b81548152906001019060200180831161165457829003601f168201915b505050505081526020016005820154815260200160068201548152602001600782018054600181600116156101000203166002900480601f0160208091040260200160405190810160405280929190818152602001828054600181600116156101000203166002900480156117275780601f106116fc57610100808354040283529160200191611727565b820191906000526020600020905b81548152906001019060200180831161170a57829003601f168201915b505050505081526020016008820154815260200160098201548152505090508092505050919050565b606080600460008473ffffffffffffffffffffffffffffffffffffffff1673ffffffffffffffffffffffffffffffffffffffff168152602001908152602001600020805490506040519080825280602002602001820160405280156117cf57816020015b6117bc613aeb565b8152602001906001900390816117b45790505b50905060008090505b600460008573ffffffffffffffffffffffffffffffffffffffff1673ffffffffffffffffffffffffffffffffffffffff168152602001908152602001600020805490508110156119ee576000600460008673ffffffffffffffffffffffffffffffffffffffff1673ffffffffffffffffffffffffffffffffffffffff168152602001908152602001600020828154811061186e57fe5b9060005260206000209060090201905080604051806101200160405290816000820160009054906101000a900473ffffffffffffffffffffffffffffffffffffffff1673ffffffffffffffffffffffffffffffffffffffff1673ffffffffffffffffffffffffffffffffffffffff1681526020016001820160009054906101000a900473ffffffffffffffffffffffffffffffffffffffff1673ffffffffffffffffffffffffffffffffffffffff1673ffffffffffffffffffffffffffffffffffffffff1681526020016002820160009054906101000a900473ffffffffffffffffffffffffffffffffffffffff1673ffffffffffffffffffffffffffffffffffffffff1673ffffffffffffffffffffffffffffffffffffffff16815260200160038201548152602001600482015481526020016005820154815260200160068201548152602001600782015481526020016008820154815250508383815181106119d557fe5b60200260200101819052505080806001019150506117d8565b5080915050919050565b60003390506076600360008373ffffffffffffffffffffffffffffffffffffffff1673ffffffffffffffffffffffffffffffffffffffff1681526020019081526020016000206003015414611a82576040517f08c379a0000000000000000000000000000000000000000000000000000000008152600401611a7990614af1565b60405180910390fd5b600560008273ffffffffffffffffffffffffffffffffffffffff1673ffffffffffffffffffffffffffffffffffffffff168152602001908152602001600020604051806101000160405280600073ffffffffffffffffffffffffffffffffffffffff1681526020018373ffffffffffffffffffffffffffffffffffffffff1681526020018781526020018681526020018581526020018481526020016000815260200160008152509080600181540180825580915050906001820390600052602060002090600802016000909192909190915060008201518160000160006101000a81548173ffffffffffffffffffffffffffffffffffffffff021916908373ffffffffffffffffffffffffffffffffffffffff16021790555060208201518160010160006101000a81548173ffffffffffffffffffffffffffffffffffffffff021916908373ffffffffffffffffffffffffffffffffffffffff1602179055506040820151816002019080519060200190611bff929190613a6b565b506060820151816003019080519060200190611c1c929190613a6b565b506080820151816004015560a0820151816005015560c0820151816006015560e0820151816007015550505060006001600560008473ffffffffffffffffffffffffffffffffffffffff1673ffffffffffffffffffffffffffffffffffffffff16815260200190815260200160002080549050039050600860008373ffffffffffffffffffffffffffffffffffffffff1673ffffffffffffffffffffffffffffffffffffffff16815260200190815260200160002060405180604001604052808473ffffffffffffffffffffffffffffffffffffffff168152602001838152509080600181540180825580915050906001820390600052602060002090600202016000909192909190915060008201518160000160006101000a81548173ffffffffffffffffffffffffffffffffffffffff021916908373ffffffffffffffffffffffffffffffffffffffff16021790555060208201518160010155505050505050505050565b60046020528160005260406000208181548110611d9c57fe5b9060005260206000209060090201600091509150508060000160009054906101000a900473ffffffffffffffffffffffffffffffffffffffff16908060010160009054906101000a900473ffffffffffffffffffffffffffffffffffffffff16908060020160009054906101000a900473ffffffffffffffffffffffffffffffffffffffff16908060030154908060040154908060050154908060060154908060070154908060080154905089565b60015481565b60003390506073600360008373ffffffffffffffffffffffffffffffffffffffff1673ffffffffffffffffffffffffffffffffffffffff1681526020019081526020016000206003015414611edb576040517f08c379a0000000000000000000000000000000000000000000000000000000008152600401611ed290614ab1565b60405180910390fd5b611ee3613b79565b600460008673ffffffffffffffffffffffffffffffffffffffff1673ffffffffffffffffffffffffffffffffffffffff1681526020019081526020016000208481548110611f2d57fe5b9060005260206000209060090201604051806101200160405290816000820160009054906101000a900473ffffffffffffffffffffffffffffffffffffffff1673ffffffffffffffffffffffffffffffffffffffff1673ffffffffffffffffffffffffffffffffffffffff1681526020016001820160009054906101000a900473ffffffffffffffffffffffffffffffffffffffff1673ffffffffffffffffffffffffffffffffffffffff1673ffffffffffffffffffffffffffffffffffffffff1681526020016002820160009054906101000a900473ffffffffffffffffffffffffffffffffffffffff1673ffffffffffffffffffffffffffffffffffffffff1673ffffffffffffffffffffffffffffffffffffffff16815260200160038201548152602001600482015481526020016005820154815260200160068201548152602001600782015481526020016008820154815250509050828160e0018181525050428161010001818152505081816000019073ffffffffffffffffffffffffffffffffffffffff16908173ffffffffffffffffffffffffffffffffffffffff168152505080600460008773ffffffffffffffffffffffffffffffffffffffff1673ffffffffffffffffffffffffffffffffffffffff168152602001908152602001600020858154811061211f57fe5b906000526020600020906009020160008201518160000160006101000a81548173ffffffffffffffffffffffffffffffffffffffff021916908373ffffffffffffffffffffffffffffffffffffffff16021790555060208201518160010160006101000a81548173ffffffffffffffffffffffffffffffffffffffff021916908373ffffffffffffffffffffffffffffffffffffffff16021790555060408201518160020160006101000a81548173ffffffffffffffffffffffffffffffffffffffff021916908373ffffffffffffffffffffffffffffffffffffffff160217905550606082015181600301556080820151816004015560a0820151816005015560c0820151816006015560e0820151816007015561010082015181600801559050505050505050565b60003390506075600360008373ffffffffffffffffffffffffffffffffffffffff1673ffffffffffffffffffffffffffffffffffffffff16815260200190815260200160002060030154146122d3576040517f08c379a00000000000000000000000000000000000000000000000000000000081526004016122ca90614b11565b60405180910390fd5b6122db613c07565b600560008673ffffffffffffffffffffffffffffffffffffffff1673ffffffffffffffffffffffffffffffffffffffff168152602001908152602001600020848154811061232557fe5b9060005260206000209060080201604051806101000160405290816000820160009054906101000a900473ffffffffffffffffffffffffffffffffffffffff1673ffffffffffffffffffffffffffffffffffffffff1673ffffffffffffffffffffffffffffffffffffffff1681526020016001820160009054906101000a900473ffffffffffffffffffffffffffffffffffffffff1673ffffffffffffffffffffffffffffffffffffffff1673ffffffffffffffffffffffffffffffffffffffff168152602001600282018054600181600116156101000203166002900480601f0160208091040260200160405190810160405280929190818152602001828054600181600116156101000203166002900480156124845780601f1061245957610100808354040283529160200191612484565b820191906000526020600020905b81548152906001019060200180831161246757829003601f168201915b50505050508152602001600382018054600181600116156101000203166002900480601f0160208091040260200160405190810160405280929190818152602001828054600181600116156101000203166002900480156125265780601f106124fb57610100808354040283529160200191612526565b820191906000526020600020905b81548152906001019060200180831161250957829003601f168201915b505050505081526020016004820154815260200160058201548152602001600682015481526020016007820154815250509050828160c0018181525050428160e001818152505081816000019073ffffffffffffffffffffffffffffffffffffffff16908173ffffffffffffffffffffffffffffffffffffffff168152505080600560008773ffffffffffffffffffffffffffffffffffffffff1673ffffffffffffffffffffffffffffffffffffffff16815260200190815260200160002085815481106125f057fe5b906000526020600020906008020160008201518160000160006101000a81548173ffffffffffffffffffffffffffffffffffffffff021916908373ffffffffffffffffffffffffffffffffffffffff16021790555060208201518160010160006101000a81548173ffffffffffffffffffffffffffffffffffffffff021916908373ffffffffffffffffffffffffffffffffffffffff16021790555060408201518160020190805190602001906126a8929190613a6b565b5060608201518160030190805190602001906126c5929190613a6b565b506080820151816004015560a0820151816005015560c0820151816006015560e082015181600701559050505050505050565b606080600560008473ffffffffffffffffffffffffffffffffffffffff1673ffffffffffffffffffffffffffffffffffffffff1681526020019081526020016000208054905060405190808252806020026020018201604052801561277757816020015b612764613c78565b81526020019060019003908161275c5790505b50905060008090505b600560008573ffffffffffffffffffffffffffffffffffffffff1673ffffffffffffffffffffffffffffffffffffffff16815260200190815260200160002080549050811015612a70576000600560008673ffffffffffffffffffffffffffffffffffffffff1673ffffffffffffffffffffffffffffffffffffffff168152602001908152602001600020828154811061281657fe5b9060005260206000209060080201905080604051806101000160405290816000820160009054906101000a900473ffffffffffffffffffffffffffffffffffffffff1673ffffffffffffffffffffffffffffffffffffffff1673ffffffffffffffffffffffffffffffffffffffff1681526020016001820160009054906101000a900473ffffffffffffffffffffffffffffffffffffffff1673ffffffffffffffffffffffffffffffffffffffff1673ffffffffffffffffffffffffffffffffffffffff168152602001600282018054600181600116156101000203166002900480601f0160208091040260200160405190810160405280929190818152602001828054600181600116156101000203166002900480156129785780601f1061294d57610100808354040283529160200191612978565b820191906000526020600020905b81548152906001019060200180831161295b57829003601f168201915b50505050508152602001600382018054600181600116156101000203166002900480601f016020809104026020016040519081016040528092919081815260200182805460018160011615610100020316600290048015612a1a5780601f106129ef57610100808354040283529160200191612a1a565b820191906000526020600020905b8154815290600101906020018083116129fd57829003601f168201915b50505050508152602001600482015481526020016005820154815260200160068201548152602001600782015481525050838381518110612a5757fe5b6020026020010181905250508080600101915050612780565b5080915050919050565b6003602052806000526040600020600091509050806000018054600181600116156101000203166002900480601f016020809104026020016040519081016040528092919081815260200182805460018160011615610100020316600290048015612b265780601f10612afb57610100808354040283529160200191612b26565b820191906000526020600020905b815481529060010190602001808311612b0957829003601f168201915b505050505090806001018054600181600116156101000203166002900480601f016020809104026020016040519081016040528092919081815260200182805460018160011615610100020316600290048015612bc45780601f10612b9957610100808354040283529160200191612bc4565b820191906000526020600020905b815481529060010190602001808311612ba757829003601f168201915b5050505050908060020160009054906101000a900473ffffffffffffffffffffffffffffffffffffffff16908060030154908060040154908060050154908060060160009054906101000a900460ff16905087565b60003390506076600360008373ffffffffffffffffffffffffffffffffffffffff1673ffffffffffffffffffffffffffffffffffffffff1681526020019081526020016000206003015414612ca3576040517f08c379a0000000000000000000000000000000000000000000000000000000008152600401612c9a90614a51565b60405180910390fd5b6009604051806101400160405280600073ffffffffffffffffffffffffffffffffffffffff1681526020018373ffffffffffffffffffffffffffffffffffffffff1681526020018981526020018881526020018781526020018681526020018581526020018481526020016000815260200160008152509080600181540180825580915050906001820390600052602060002090600a02016000909192909190915060008201518160000160006101000a81548173ffffffffffffffffffffffffffffffffffffffff021916908373ffffffffffffffffffffffffffffffffffffffff16021790555060208201518160010160006101000a81548173ffffffffffffffffffffffffffffffffffffffff021916908373ffffffffffffffffffffffffffffffffffffffff16021790555060408201518160020155606082015181600301556080820151816004019080519060200190612e03929190613a6b565b5060a0820151816005015560c0820151816006015560e0820151816007019080519060200190612e34929190613a6b565b50610100820151816008015561012082015181600901555050506000600160098054905003905080600360008473ffffffffffffffffffffffffffffffffffffffff1673ffffffffffffffffffffffffffffffffffffffff168152602001908152602001600020600501819055505050505050505050565b60003390506076600360008373ffffffffffffffffffffffffffffffffffffffff1673ffffffffffffffffffffffffffffffffffffffff1681526020019081526020016000206003015414612f36576040517f08c379a0000000000000000000000000000000000000000000000000000000008152600401612f2d90614b31565b60405180910390fd5b612f3e613997565b600360008373ffffffffffffffffffffffffffffffffffffffff1673ffffffffffffffffffffffffffffffffffffffff1681526020019081526020016000206040518060e0016040529081600082018054600181600116156101000203166002900480601f0160208091040260200160405190810160405280929190818152602001828054600181600116156101000203166002900480156130215780601f10612ff657610100808354040283529160200191613021565b820191906000526020600020905b81548152906001019060200180831161300457829003601f168201915b50505050508152602001600182018054600181600116156101000203166002900480601f0160208091040260200160405190810160405280929190818152602001828054600181600116156101000203166002900480156130c35780601f10613098576101008083540402835291602001916130c3565b820191906000526020600020905b8154815290600101906020018083116130a657829003601f168201915b505050505081526020016002820160009054906101000a900473ffffffffffffffffffffffffffffffffffffffff1673ffffffffffffffffffffffffffffffffffffffff1673ffffffffffffffffffffffffffffffffffffffff1681526020016003820154815260200160048201548152602001600582015481526020016006820160009054906101000a900460ff161515151581525050905060008160a00151905061316e6139ec565b6009828154811061317b57fe5b90600052602060002090600a0201604051806101400160405290816000820160009054906101000a900473ffffffffffffffffffffffffffffffffffffffff1673ffffffffffffffffffffffffffffffffffffffff1673ffffffffffffffffffffffffffffffffffffffff1681526020016001820160009054906101000a900473ffffffffffffffffffffffffffffffffffffffff1673ffffffffffffffffffffffffffffffffffffffff1673ffffffffffffffffffffffffffffffffffffffff1681526020016002820154815260200160038201548152602001600482018054600181600116156101000203166002900480601f0160208091040260200160405190810160405280929190818152602001828054600181600116156101000203166002900480156132ee5780601f106132c3576101008083540402835291602001916132ee565b820191906000526020600020905b8154815290600101906020018083116132d157829003601f168201915b505050505081526020016005820154815260200160068201548152602001600782018054600181600116156101000203166002900480601f0160208091040260200160405190810160405280929190818152602001828054600181600116156101000203166002900480156133a45780601f10613379576101008083540402835291602001916133a4565b820191906000526020600020905b81548152906001019060200180831161338757829003601f168201915b50505050508152602001600882015481526020016009820154815250509050600460008573ffffffffffffffffffffffffffffffffffffffff1673ffffffffffffffffffffffffffffffffffffffff168152602001908152602001600020604051806101200160405280600073ffffffffffffffffffffffffffffffffffffffff1681526020018673ffffffffffffffffffffffffffffffffffffffff168152602001836000015173ffffffffffffffffffffffffffffffffffffffff1681526020018a81526020018981526020018881526020018781526020016000815260200160008152509080600181540180825580915050906001820390600052602060002090600902016000909192909190915060008201518160000160006101000a81548173ffffffffffffffffffffffffffffffffffffffff021916908373ffffffffffffffffffffffffffffffffffffffff16021790555060208201518160010160006101000a81548173ffffffffffffffffffffffffffffffffffffffff021916908373ffffffffffffffffffffffffffffffffffffffff16021790555060408201518160020160006101000a81548173ffffffffffffffffffffffffffffffffffffffff021916908373ffffffffffffffffffffffffffffffffffffffff160217905550606082015181600301556080820151816004015560a0820151816005015560c0820151816006015560e08201518160070155610100820151816008015550505060006001600460008773ffffffffffffffffffffffffffffffffffffffff1673ffffffffffffffffffffffffffffffffffffffff16815260200190815260200160002080549050039050600760008673ffffffffffffffffffffffffffffffffffffffff1673ffffffffffffffffffffffffffffffffffffffff16815260200190815260200160002060405180604001604052808773ffffffffffffffffffffffffffffffffffffffff168152602001838152509080600181540180825580915050906001820390600052602060002090600202016000909192909190915060008201518160000160006101000a81548173ffffffffffffffffffffffffffffffffffffffff021916908373ffffffffffffffffffffffffffffffffffffffff16021790555060208201518160010155505050505050505050505050565b6006602052816000526040600020818154811061372257fe5b9060005260206000209060020201600091509150508060000160009054906101000a900473ffffffffffffffffffffffffffffffffffffffff16908060010154905082565b6007602052816000526040600020818154811061378057fe5b9060005260206000209060020201600091509150508060000160009054906101000a900473ffffffffffffffffffffffffffffffffffffffff16908060010154905082565b600560205281600052604060002081815481106137de57fe5b9060005260206000209060080201600091509150508060000160009054906101000a900473ffffffffffffffffffffffffffffffffffffffff16908060010160009054906101000a900473ffffffffffffffffffffffffffffffffffffffff1690806002018054600181600116156101000203166002900480601f0160208091040260200160405190810160405280929190818152602001828054600181600116156101000203166002900480156138d75780601f106138ac576101008083540402835291602001916138d7565b820191906000526020600020905b8154815290600101906020018083116138ba57829003601f168201915b505050505090806003018054600181600116156101000203166002900480601f0160208091040260200160405190810160405280929190818152602001828054600181600116156101000203166002900480156139755780601f1061394a57610100808354040283529160200191613975565b820191906000526020600020905b81548152906001019060200180831161395857829003601f168201915b5050505050908060040154908060050154908060060154908060070154905088565b6040518060e001604052806060815260200160608152602001600073ffffffffffffffffffffffffffffffffffffffff1681526020016000815260200160008152602001600081526020016000151581525090565b604051806101400160405280600073ffffffffffffffffffffffffffffffffffffffff168152602001600073ffffffffffffffffffffffffffffffffffffffff16815260200160008152602001600081526020016060815260200160008152602001600081526020016060815260200160008152602001600081525090565b828054600181600116156101000203166002900490600052602060002090601f016020900481019282601f10613aac57805160ff1916838001178555613ada565b82800160010185558215613ada579182015b82811115613ad9578251825591602001919060010190613abe565b5b509050613ae79190613ce9565b5090565b604051806101200160405280600073ffffffffffffffffffffffffffffffffffffffff168152602001600073ffffffffffffffffffffffffffffffffffffffff168152602001600073ffffffffffffffffffffffffffffffffffffffff1681526020016000815260200160008152602001600081526020016000815260200160008152602001600081525090565b604051806101200160405280600073ffffffffffffffffffffffffffffffffffffffff168152602001600073ffffffffffffffffffffffffffffffffffffffff168152602001600073ffffffffffffffffffffffffffffffffffffffff1681526020016000815260200160008152602001600081526020016000815260200160008152602001600081525090565b604051806101000160405280600073ffffffffffffffffffffffffffffffffffffffff168152602001600073ffffffffffffffffffffffffffffffffffffffff1681526020016060815260200160608152602001600081526020016000815260200160008152602001600081525090565b604051806101000160405280600073ffffffffffffffffffffffffffffffffffffffff168152602001600073ffffffffffffffffffffffffffffffffffffffff1681526020016060815260200160608152602001600081526020016000815260200160008152602001600081525090565b613d0b91905b80821115613d07576000816000905550600101613cef565b5090565b90565b600081359050613d1d81614d2b565b92915050565b600082601f830112613d3457600080fd5b8135613d47613d4282614bbb565b614b8e565b91508082526020830160208301858383011115613d6357600080fd5b613d6e838284614cd8565b50505092915050565b600081359050613d8681614d42565b92915050565b600060208284031215613d9e57600080fd5b6000613dac84828501613d0e565b91505092915050565b60008060408385031215613dc857600080fd5b6000613dd685828601613d0e565b9250506020613de785828601613d77565b9150509250929050565b600080600060608486031215613e0657600080fd5b6000613e1486828701613d0e565b9350506020613e2586828701613d77565b9250506040613e3686828701613d77565b9150509250925092565b60008060008060808587031215613e5657600080fd5b600085013567ffffffffffffffff811115613e7057600080fd5b613e7c87828801613d23565b945050602085013567ffffffffffffffff811115613e9957600080fd5b613ea587828801613d23565b9350506040613eb687828801613d77565b9250506060613ec787828801613d77565b91505092959194509250565b600060208284031215613ee557600080fd5b6000613ef384828501613d77565b91505092915050565b60008060008060008060c08789031215613f1557600080fd5b6000613f2389828a01613d77565b9650506020613f3489828a01613d77565b955050604087013567ffffffffffffffff811115613f5157600080fd5b613f5d89828a01613d23565b9450506060613f6e89828a01613d77565b9350506080613f7f89828a01613d77565b92505060a087013567ffffffffffffffff811115613f9c57600080fd5b613fa889828a01613d23565b9150509295509295509295565b60008060008060808587031215613fcb57600080fd5b6000613fd987828801613d77565b9450506020613fea87828801613d77565b9350506040613ffb87828801613d77565b925050606061400c87828801613d77565b91505092959194509250565b600061402483836144d0565b905092915050565b60006140388383614668565b6101208301905092915050565b61404e81614c86565b82525050565b61405d81614c86565b82525050565b600061406e82614c07565b6140788185614c42565b93508360208202850161408a85614be7565b8060005b858110156140c657848403895281516140a78582614018565b94506140b283614c28565b925060208a0199505060018101905061408e565b50829750879550505050505092915050565b60006140e382614c12565b6140ed8185614c53565b93506140f883614bf7565b8060005b83811015614129578151614110888261402c565b975061411b83614c35565b9250506001810190506140fc565b5085935050505092915050565b61413f81614c98565b82525050565b61414e81614ca4565b82525050565b600061415f82614c1d565b6141698185614c64565b9350614179818560208601614ce7565b61418281614d1a565b840191505092915050565b600061419882614c1d565b6141a28185614c75565b93506141b2818560208601614ce7565b6141bb81614d1a565b840191505092915050565b60006141d3602683614c75565b91507f244e6f7420417574686f72697a656420666f722050617373706f72742043726560008301527f6174696f6e2400000000000000000000000000000000000000000000000000006020830152604082019050919050565b6000614239601383614c75565b91507f244e6f2050617373706f727420466f756e6424000000000000000000000000006000830152602082019050919050565b6000614279603083614c75565b91507f244e6f7420417574686f72697a656420666f722050617373706f72742041707060008301527f726f76616c2f52656a656374696f6e24000000000000000000000000000000006020830152604082019050919050565b60006142df602b83614c75565b91507f244e6f7420417574686f72697a656420666f72205669736120417070726f766160008301527f6c2f52656a656374696f6e0000000000000000000000000000000000000000006020830152604082019050919050565b6000614345602183614c75565b91507f24436974697a656e206164647265737320616c72656164792070726573656e7460008301527f24000000000000000000000000000000000000000000000000000000000000006020830152604082019050919050565b60006143ab603183614c75565b91507f244e6f7420417574686f72697a656420666f7220496d6d6967726174696f6e2060008301527f52657175657374204372656174696f6e240000000000000000000000000000006020830152604082019050919050565b6000614411603283614c75565b91507f244e6f7420417574686f72697a656420666f7220496d6d6967726174696f6e2060008301527f417070726f76616c2f52656a656374696f6e00000000000000000000000000006020830152604082019050919050565b6000614477602283614c75565b91507f244e6f7420417574686f72697a656420666f722056697361204372656174696f60008301527f6e240000000000000000000000000000000000000000000000000000000000006020830152604082019050919050565b6000610100830160008301516144e96000860182614045565b5060208301516144fc6020860182614045565b50604083015184820360408601526145148282614154565b9150506060830151848203606086015261452e8282614154565b9150506080830151614543608086018261471f565b5060a083015161455660a086018261471f565b5060c083015161456960c086018261471f565b5060e083015161457c60e086018261471f565b508091505092915050565b6000610140830160008301516145a06000860182614045565b5060208301516145b36020860182614045565b5060408301516145c6604086018261471f565b5060608301516145d9606086018261471f565b50608083015184820360808601526145f18282614154565b91505060a083015161460660a086018261471f565b5060c083015161461960c086018261471f565b5060e083015184820360e08601526146318282614154565b91505061010083015161464861010086018261471f565b5061012083015161465d61012086018261471f565b508091505092915050565b6101208201600082015161467f6000850182614045565b5060208201516146926020850182614045565b5060408201516146a56040850182614045565b5060608201516146b8606085018261471f565b5060808201516146cb608085018261471f565b5060a08201516146de60a085018261471f565b5060c08201516146f160c085018261471f565b5060e082015161470460e085018261471f565b5061010082015161471961010085018261471f565b50505050565b61472881614cce565b82525050565b61473781614cce565b82525050565b600061012082019050614753600083018c614054565b614760602083018b614054565b61476d604083018a614054565b61477a606083018961472e565b614787608083018861472e565b61479460a083018761472e565b6147a160c083018661472e565b6147ae60e083018561472e565b6147bc61010083018461472e565b9a9950505050505050505050565b6000610100820190506147e0600083018b614054565b6147ed602083018a614054565b81810360408301526147ff818961418d565b90508181036060830152614813818861418d565b9050614822608083018761472e565b61482f60a083018661472e565b61483c60c083018561472e565b61484960e083018461472e565b9998505050505050505050565b60006101408201905061486c600083018d614054565b614879602083018c614054565b614886604083018b61472e565b614893606083018a61472e565b81810360808301526148a5818961418d565b90506148b460a083018861472e565b6148c160c083018761472e565b81810360e08301526148d3818661418d565b90506148e361010083018561472e565b6148f161012083018461472e565b9b9a5050505050505050505050565b60006040820190506149156000830185614054565b614922602083018461472e565b9392505050565b600060208201905081810360008301526149438184614063565b905092915050565b6000602082019050818103600083015261496581846140d8565b905092915050565b60006020820190508181036000830152614987818461418d565b905092915050565b600060608201905081810360008301526149a9818661418d565b905081810360208301526149bd818561418d565b90506149cc6040830184614054565b949350505050565b600060e08201905081810360008301526149ee818a61418d565b90508181036020830152614a02818961418d565b9050614a116040830188614054565b614a1e606083018761472e565b614a2b608083018661472e565b614a3860a0830185614145565b614a4560c0830184614136565b98975050505050505050565b60006020820190508181036000830152614a6a816141c6565b9050919050565b60006020820190508181036000830152614a8a8161422c565b9050919050565b60006020820190508181036000830152614aaa8161426c565b9050919050565b60006020820190508181036000830152614aca816142d2565b9050919050565b60006020820190508181036000830152614aea81614338565b9050919050565b60006020820190508181036000830152614b0a8161439e565b9050919050565b60006020820190508181036000830152614b2a81614404565b9050919050565b60006020820190508181036000830152614b4a8161446a565b9050919050565b60006020820190508181036000830152614b6b8184614587565b905092915050565b6000602082019050614b88600083018461472e565b92915050565b6000604051905081810181811067ffffffffffffffff82111715614bb157600080fd5b8060405250919050565b600067ffffffffffffffff821115614bd257600080fd5b601f19601f8301169050602081019050919050565b6000819050602082019050919050565b6000819050602082019050919050565b600081519050919050565b600081519050919050565b600081519050919050565b6000602082019050919050565b6000602082019050919050565b600082825260208201905092915050565b600082825260208201905092915050565b600082825260208201905092915050565b600082825260208201905092915050565b6000614c9182614cae565b9050919050565b60008115159050919050565b6000819050919050565b600073ffffffffffffffffffffffffffffffffffffffff82169050919050565b6000819050919050565b82818337600083830152505050565b60005b83811015614d05578082015181840152602081019050614cea565b83811115614d14576000848401525b50505050565b6000601f19601f8301169050919050565b614d3481614c86565b8114614d3f57600080fd5b50565b614d4b81614cce565b8114614d5657600080fd5b5056fea365627a7a7231582089ce9f29e06a6bd00929e50eb2891ce20977b47307ec4d15c7e0623ef21a07206c6578706572696d656e74616cf564736f6c63430005100040",
  "source": "pragma solidity ^0.5.16;\npragma experimental ABIEncoderV2;\n\ncontract PvContract {\n\n    string public name;\n    uint public passportCount = 0;\n    uint public visaCount = 0;\n\n    struct Citizen {\n        string citizenName;\n        string identityNo;\n        address citizenAddress;\n        uint userType;\n        uint portalId;\n        int passportIndex;\n        bool exists;\n    }\n\n    struct CitizenPassport {\n        address citizenPassportAddress;\n        address citizenAddress;\n        uint passportAgencyId;\n        uint passportBranchId;\n        string passportType;\n        uint256 issuanceExpiry;\n        uint256 issuanceDate;\n        string status;\n        uint signed;\n        uint256 signedDate;\n    }\n\n    struct CitizenVisa {\n        address citizenVisaAddress;\n        address citizenAddress;\n        address citizenPassportAddress;\n\n        uint foreignVisaAgencyBranchId;\n        uint foreignVisaAgencyId;\n        uint256 issuanceDate;\n        uint256 issuanceExpiry;\n        uint signed;\n        uint256 signedDate;\n    }\n\n    struct CitizenImmigration {\n        address citizenImmigrationAddress;\n        address citizenAddress;\n        string immigrationName;\n        string branchId;\n        uint256 immigrationTime;\n        uint isCheckIn; //0 means check in, 1 means checkout\n        uint signed;\n        uint256 signedDate;\n    }\n\n    struct PvCitizenPassport {\n        address citizenAddress;\n        uint citizenPassportId;\n    }\n\n    struct PvCitizenVisa {\n        address citizenAddress;\n        uint citizenVisaId;\n    }\n\n    struct PvCitizenImmigration {\n        address citizenAddress;\n        uint citizenImmigrationId;\n    }\n\n    struct PvCitizen {\n        string citizenName;\n        string identityNo;\n        address citizenAddress;\n    }\n\n\n    mapping(address => Citizen) public citizens;\n    mapping(address => CitizenVisa[]) public citizenVisas;\n    mapping(address => CitizenImmigration[]) public citizenImmigrations;\n    mapping(address => PvCitizenPassport[]) public pvCitizenPassports;\n    mapping(address => PvCitizenVisa[]) public pvCitizenVisas;\n    mapping(address => PvCitizenImmigration[]) public pvCitizenImmigrations;\n\n    CitizenPassport[] public citizenPassports;\n    PvCitizen[] public pvCitizens;\n\n\n    constructor() public {\n    }\n\n    function createCitizen(string memory citizenName, string memory identityNo, uint userType, uint portalId) public {\n        address user = msg.sender;\n        require(!citizens[user].exists, \"$Citizen address already present$\");\n\n        citizens[user] = Citizen(citizenName, identityNo, msg.sender, userType, portalId, -1,true);\n        if (userType == 102) {\n            pvCitizens.push(PvCitizen(citizenName, identityNo, msg.sender));\n        }\n    }\n\n    function createCitizenPassport(uint passportAgencyId, uint passportBranchId,\n        string memory passportType, uint256 issuanceExpiry, uint256 issuanceDate,\n        string memory status) public {\n\n        address citizenAddress = msg.sender;\n        require(citizens[citizenAddress].userType == 118, \"$Not Authorized for Passport Creation$\");\n\n        citizenPassports.push(CitizenPassport(address(0), citizenAddress, passportAgencyId, passportBranchId,\n            passportType, issuanceExpiry, issuanceDate, status, 0, 0));\n\n        uint passportIndex = citizenPassports   .length - 1;\n        // pvCitizenPassports[passportAgency].push(PvCitizenPassport(citizenAddress, passportIndex));\n        citizens[citizenAddress].passportIndex = int256(passportIndex);\n    }\n\n    function createCitizenVisa(uint foreignVisaAgencyBranchId, uint foreignVisaAgencyId,\n        uint256 issuanceDate, uint256 issuanceExpiry) public {\n\n        // address visaAgency = msg.sender;\n        address citizenAddress = msg.sender;\n        require(citizens[citizenAddress].userType == 118, \"$Not Authorized for Visa Creation$\");\n\n        Citizen memory citizen = citizens[citizenAddress];\n        uint256 citizenPassportIndex = uint256 (citizen.passportIndex);\n\n        CitizenPassport memory citizenPassport = citizenPassports[citizenPassportIndex];\n        citizenVisas[citizenAddress].push(\n            CitizenVisa(address(0), citizenAddress, citizenPassport.citizenPassportAddress, foreignVisaAgencyBranchId, foreignVisaAgencyId,\n            issuanceDate, issuanceExpiry, 0, 0));\n\n        uint visaIndex = citizenVisas[citizenAddress].length - 1;\n        pvCitizenVisas[citizenAddress].push(PvCitizenVisa(citizenAddress, visaIndex));\n\n    }\n\n    function createCitizenImmigration(string memory immigrationName,\n        string memory branchId, uint256 immigrationTime, uint isCheckIn) public {\n\n        address citizenAddress = msg.sender;\n        require(citizens[citizenAddress].userType == 118, \"$Not Authorized for Immigration Request Creation$\");\n\n        citizenImmigrations[citizenAddress].push(\n            CitizenImmigration(address(0), citizenAddress, immigrationName, branchId,\n            immigrationTime, isCheckIn, 0, 0));\n\n        uint immigrationIndex = citizenImmigrations[citizenAddress].length - 1;\n        pvCitizenImmigrations[citizenAddress].push(PvCitizenImmigration(citizenAddress, immigrationIndex));\n    }\n\n    function getCitizenPassport(address citizenAddress) public view returns (CitizenPassport memory) {\n\n        Citizen memory citizen = citizens[citizenAddress];\n        require(citizen.passportIndex >= 0, \"$No Passport Found$\");\n        CitizenPassport memory citizenPassport = citizenPassports[uint256(citizen.passportIndex)];\n\n        return citizenPassport;\n    }\n\n    function getCitizenVisas(address citizen) public view returns (CitizenVisa[] memory) {\n        CitizenVisa[] memory visas = new CitizenVisa[](citizenVisas[citizen].length);\n        for (uint i = 0; i < citizenVisas[citizen].length; i++) {\n            CitizenVisa storage visa = citizenVisas[citizen][i];\n            visas[i] = visa;\n        }\n        return visas;\n    }\n\n    function getCitizenImmigrations(address citizen) public view returns (CitizenImmigration[] memory) {\n        CitizenImmigration[] memory immigrations = new CitizenImmigration[](citizenImmigrations[citizen].length);\n        for (uint i = 0; i < citizenImmigrations[citizen].length; i++) {\n            CitizenImmigration storage immigration = citizenImmigrations[citizen][i];\n            immigrations[i] = immigration;\n        }\n        return immigrations;\n    }\n\n    function signPassport(address citizenAddress, uint signed) public {\n        address user = msg.sender;\n        require(citizens[user].userType == 113, \"$Not Authorized for Passport Approval/Rejection$\");\n\n        Citizen memory citizen = citizens[citizenAddress];\n        uint256 citizenPassportIndex = uint256 (citizen.passportIndex);\n        CitizenPassport memory passport = citizenPassports[citizenPassportIndex];\n        passport.citizenPassportAddress = user;\n        passport.signed = signed;\n        passport.signedDate = block.timestamp;\n\n        citizenPassports[citizenPassportIndex] = passport;\n    }\n\n    function signVisa(address citizenAddress, uint index, uint signed) public {\n        address user = msg.sender;\n        require(citizens[user].userType == 115, \"$Not Authorized for Visa Approval/Rejection\");\n        CitizenVisa memory visa = citizenVisas[citizenAddress][index];\n        visa.signed = signed;\n        visa.signedDate = block.timestamp;\n        visa.citizenVisaAddress = user;\n        citizenVisas[citizenAddress][index] = visa;\n    }\n\n    function signImmigration(address citizenAddress, uint index, uint signed) public {\n        address user = msg.sender;\n        require(citizens[user].userType == 117, \"$Not Authorized for Immigration Approval/Rejection\");\n        CitizenImmigration memory immigration = citizenImmigrations[citizenAddress][index];\n        immigration.signed = signed;\n        immigration.signedDate = block.timestamp;\n        immigration.citizenImmigrationAddress = user;\n        citizenImmigrations[citizenAddress][index] = immigration;\n    }\n\n\n}\n",
  "sourcePath": "/Users/amuneem/Codes/ms-project/Java/MS-FYP-Microservice/Blockchain-NodeJs/apis/pv/contracts/PvContract.sol",
  "compiler": {
    "name": "solc",
    "version": "0.5.16+commit.9c3226ce.Emscripten.clang"
  },
  "schemaVersion": "3.4.10",
  "updatedAt": "2023-01-02T22:16:54.560Z",
  "networkType": "ethereum",
  "devdoc": {
    "methods": {}
  },
  "userdoc": {
    "methods": {}
  }
}