{
  "contractName": "PvContract",
  "abi": [
    {
      "inputs": [],
      "payable": false,
      "stateMutability": "nonpayable",
      "type": "constructor"
    },
    {
      "constant": true,
      "inputs": [
        {
          "internalType": "address",
          "name": "",
          "type": "address"
        },
        {
          "internalType": "uint256",
          "name": "",
          "type": "uint256"
        }
      ],
      "name": "citizenImmigrations",
      "outputs": [
        {
          "internalType": "address",
          "name": "citizenImmigrationAddress",
          "type": "address"
        },
        {
          "internalType": "address",
          "name": "citizenVisaAddress",
          "type": "address"
        },
        {
          "internalType": "address",
          "name": "citizenAddress",
          "type": "address"
        },
        {
          "internalType": "string",
          "name": "immigrationName",
          "type": "string"
        },
        {
          "internalType": "string",
          "name": "branchId",
          "type": "string"
        },
        {
          "internalType": "uint256",
          "name": "immigrationTime",
          "type": "uint256"
        },
        {
          "internalType": "uint256",
          "name": "isCheckIn",
          "type": "uint256"
        },
        {
          "internalType": "uint256",
          "name": "signed",
          "type": "uint256"
        },
        {
          "internalType": "uint256",
          "name": "signedDate",
          "type": "uint256"
        }
      ],
      "payable": false,
      "stateMutability": "view",
      "type": "function"
    },
    {
      "constant": true,
      "inputs": [
        {
          "internalType": "uint256",
          "name": "",
          "type": "uint256"
        }
      ],
      "name": "citizenPassports",
      "outputs": [
        {
          "internalType": "address",
          "name": "citizenPassportAddress",
          "type": "address"
        },
        {
          "internalType": "address",
          "name": "citizenAddress",
          "type": "address"
        },
        {
          "internalType": "uint256",
          "name": "passportAgencyId",
          "type": "uint256"
        },
        {
          "internalType": "uint256",
          "name": "passportBranchId",
          "type": "uint256"
        },
        {
          "internalType": "string",
          "name": "passportType",
          "type": "string"
        },
        {
          "internalType": "uint256",
          "name": "issuanceExpiry",
          "type": "uint256"
        },
        {
          "internalType": "uint256",
          "name": "issuanceDate",
          "type": "uint256"
        },
        {
          "internalType": "string",
          "name": "status",
          "type": "string"
        },
        {
          "internalType": "uint256",
          "name": "signed",
          "type": "uint256"
        },
        {
          "internalType": "uint256",
          "name": "signedDate",
          "type": "uint256"
        }
      ],
      "payable": false,
      "stateMutability": "view",
      "type": "function"
    },
    {
      "constant": true,
      "inputs": [
        {
          "internalType": "address",
          "name": "",
          "type": "address"
        },
        {
          "internalType": "uint256",
          "name": "",
          "type": "uint256"
        }
      ],
      "name": "citizenVisas",
      "outputs": [
        {
          "internalType": "address",
          "name": "citizenVisaAddress",
          "type": "address"
        },
        {
          "internalType": "address",
          "name": "citizenAddress",
          "type": "address"
        },
        {
          "internalType": "address",
          "name": "citizenPassportAddress",
          "type": "address"
        },
        {
          "internalType": "uint256",
          "name": "foreignVisaAgencyBranchId",
          "type": "uint256"
        },
        {
          "internalType": "uint256",
          "name": "foreignVisaAgencyId",
          "type": "uint256"
        },
        {
          "internalType": "uint256",
          "name": "issuanceDate",
          "type": "uint256"
        },
        {
          "internalType": "uint256",
          "name": "issuanceExpiry",
          "type": "uint256"
        },
        {
          "internalType": "uint256",
          "name": "signed",
          "type": "uint256"
        },
        {
          "internalType": "uint256",
          "name": "signedDate",
          "type": "uint256"
        }
      ],
      "payable": false,
      "stateMutability": "view",
      "type": "function"
    },
    {
      "constant": true,
      "inputs": [
        {
          "internalType": "address",
          "name": "",
          "type": "address"
        }
      ],
      "name": "citizens",
      "outputs": [
        {
          "internalType": "string",
          "name": "citizenName",
          "type": "string"
        },
        {
          "internalType": "string",
          "name": "identityNo",
          "type": "string"
        },
        {
          "internalType": "address",
          "name": "citizenAddress",
          "type": "address"
        },
        {
          "internalType": "uint256",
          "name": "userType",
          "type": "uint256"
        },
        {
          "internalType": "uint256",
          "name": "portalId",
          "type": "uint256"
        },
        {
          "internalType": "int256",
          "name": "passportIndex",
          "type": "int256"
        },
        {
          "internalType": "bool",
          "name": "exists",
          "type": "bool"
        }
      ],
      "payable": false,
      "stateMutability": "view",
      "type": "function"
    },
    {
      "constant": true,
      "inputs": [],
      "name": "name",
      "outputs": [
        {
          "internalType": "string",
          "name": "",
          "type": "string"
        }
      ],
      "payable": false,
      "stateMutability": "view",
      "type": "function"
    },
    {
      "constant": true,
      "inputs": [],
      "name": "passportCount",
      "outputs": [
        {
          "internalType": "uint256",
          "name": "",
          "type": "uint256"
        }
      ],
      "payable": false,
      "stateMutability": "view",
      "type": "function"
    },
    {
      "constant": true,
      "inputs": [
        {
          "internalType": "address",
          "name": "",
          "type": "address"
        },
        {
          "internalType": "uint256",
          "name": "",
          "type": "uint256"
        }
      ],
      "name": "pvCitizenImmigrations",
      "outputs": [
        {
          "internalType": "address",
          "name": "citizenAddress",
          "type": "address"
        },
        {
          "internalType": "uint256",
          "name": "citizenImmigrationId",
          "type": "uint256"
        }
      ],
      "payable": false,
      "stateMutability": "view",
      "type": "function"
    },
    {
      "constant": true,
      "inputs": [
        {
          "internalType": "address",
          "name": "",
          "type": "address"
        },
        {
          "internalType": "uint256",
          "name": "",
          "type": "uint256"
        }
      ],
      "name": "pvCitizenPassports",
      "outputs": [
        {
          "internalType": "address",
          "name": "citizenAddress",
          "type": "address"
        },
        {
          "internalType": "uint256",
          "name": "citizenPassportId",
          "type": "uint256"
        }
      ],
      "payable": false,
      "stateMutability": "view",
      "type": "function"
    },
    {
      "constant": true,
      "inputs": [
        {
          "internalType": "address",
          "name": "",
          "type": "address"
        },
        {
          "internalType": "uint256",
          "name": "",
          "type": "uint256"
        }
      ],
      "name": "pvCitizenVisas",
      "outputs": [
        {
          "internalType": "address",
          "name": "citizenAddress",
          "type": "address"
        },
        {
          "internalType": "uint256",
          "name": "citizenVisaId",
          "type": "uint256"
        }
      ],
      "payable": false,
      "stateMutability": "view",
      "type": "function"
    },
    {
      "constant": true,
      "inputs": [
        {
          "internalType": "uint256",
          "name": "",
          "type": "uint256"
        }
      ],
      "name": "pvCitizens",
      "outputs": [
        {
          "internalType": "string",
          "name": "citizenName",
          "type": "string"
        },
        {
          "internalType": "string",
          "name": "identityNo",
          "type": "string"
        },
        {
          "internalType": "address",
          "name": "citizenAddress",
          "type": "address"
        }
      ],
      "payable": false,
      "stateMutability": "view",
      "type": "function"
    },
    {
      "constant": true,
      "inputs": [],
      "name": "visaCount",
      "outputs": [
        {
          "internalType": "uint256",
          "name": "",
          "type": "uint256"
        }
      ],
      "payable": false,
      "stateMutability": "view",
      "type": "function"
    },
    {
      "constant": false,
      "inputs": [
        {
          "internalType": "string",
          "name": "citizenName",
          "type": "string"
        },
        {
          "internalType": "string",
          "name": "identityNo",
          "type": "string"
        },
        {
          "internalType": "uint256",
          "name": "userType",
          "type": "uint256"
        },
        {
          "internalType": "uint256",
          "name": "portalId",
          "type": "uint256"
        }
      ],
      "name": "createCitizen",
      "outputs": [],
      "payable": false,
      "stateMutability": "nonpayable",
      "type": "function"
    },
    {
      "constant": false,
      "inputs": [
        {
          "internalType": "address",
          "name": "citizenAddress",
          "type": "address"
        },
        {
          "internalType": "uint256",
          "name": "passportAgencyId",
          "type": "uint256"
        },
        {
          "internalType": "uint256",
          "name": "passportBranchId",
          "type": "uint256"
        },
        {
          "internalType": "string",
          "name": "passportType",
          "type": "string"
        },
        {
          "internalType": "uint256",
          "name": "issuanceExpiry",
          "type": "uint256"
        },
        {
          "internalType": "uint256",
          "name": "issuanceDate",
          "type": "uint256"
        },
        {
          "internalType": "string",
          "name": "status",
          "type": "string"
        }
      ],
      "name": "createCitizenPassport",
      "outputs": [],
      "payable": false,
      "stateMutability": "nonpayable",
      "type": "function"
    },
    {
      "constant": false,
      "inputs": [
        {
          "internalType": "address",
          "name": "citizenAddress",
          "type": "address"
        },
        {
          "internalType": "address",
          "name": "citizenPassportAddress",
          "type": "address"
        },
        {
          "internalType": "uint256",
          "name": "foreignVisaAgencyBranchId",
          "type": "uint256"
        },
        {
          "internalType": "uint256",
          "name": "foreignVisaAgencyId",
          "type": "uint256"
        },
        {
          "internalType": "uint256",
          "name": "issuanceDate",
          "type": "uint256"
        },
        {
          "internalType": "uint256",
          "name": "issuanceExpiry",
          "type": "uint256"
        }
      ],
      "name": "createCitizenVisa",
      "outputs": [],
      "payable": false,
      "stateMutability": "nonpayable",
      "type": "function"
    },
    {
      "constant": false,
      "inputs": [
        {
          "internalType": "address",
          "name": "citizenVisaAddress",
          "type": "address"
        },
        {
          "internalType": "address",
          "name": "citizenAddress",
          "type": "address"
        },
        {
          "internalType": "string",
          "name": "immigrationName",
          "type": "string"
        },
        {
          "internalType": "string",
          "name": "branchId",
          "type": "string"
        },
        {
          "internalType": "uint256",
          "name": "immigrationTime",
          "type": "uint256"
        },
        {
          "internalType": "uint256",
          "name": "isCheckIn",
          "type": "uint256"
        }
      ],
      "name": "createCitizenImmigration",
      "outputs": [],
      "payable": false,
      "stateMutability": "nonpayable",
      "type": "function"
    },
    {
      "constant": true,
      "inputs": [
        {
          "internalType": "address",
          "name": "citizenAddress",
          "type": "address"
        }
      ],
      "name": "getCitizenPassport",
      "outputs": [
        {
          "components": [
            {
              "internalType": "address",
              "name": "citizenPassportAddress",
              "type": "address"
            },
            {
              "internalType": "address",
              "name": "citizenAddress",
              "type": "address"
            },
            {
              "internalType": "uint256",
              "name": "passportAgencyId",
              "type": "uint256"
            },
            {
              "internalType": "uint256",
              "name": "passportBranchId",
              "type": "uint256"
            },
            {
              "internalType": "string",
              "name": "passportType",
              "type": "string"
            },
            {
              "internalType": "uint256",
              "name": "issuanceExpiry",
              "type": "uint256"
            },
            {
              "internalType": "uint256",
              "name": "issuanceDate",
              "type": "uint256"
            },
            {
              "internalType": "string",
              "name": "status",
              "type": "string"
            },
            {
              "internalType": "uint256",
              "name": "signed",
              "type": "uint256"
            },
            {
              "internalType": "uint256",
              "name": "signedDate",
              "type": "uint256"
            }
          ],
          "internalType": "struct PvContract.CitizenPassport",
          "name": "",
          "type": "tuple"
        }
      ],
      "payable": false,
      "stateMutability": "view",
      "type": "function"
    },
    {
      "constant": true,
      "inputs": [
        {
          "internalType": "address",
          "name": "citizen",
          "type": "address"
        }
      ],
      "name": "getCitizenVisas",
      "outputs": [
        {
          "components": [
            {
              "internalType": "address",
              "name": "citizenVisaAddress",
              "type": "address"
            },
            {
              "internalType": "address",
              "name": "citizenAddress",
              "type": "address"
            },
            {
              "internalType": "address",
              "name": "citizenPassportAddress",
              "type": "address"
            },
            {
              "internalType": "uint256",
              "name": "foreignVisaAgencyBranchId",
              "type": "uint256"
            },
            {
              "internalType": "uint256",
              "name": "foreignVisaAgencyId",
              "type": "uint256"
            },
            {
              "internalType": "uint256",
              "name": "issuanceDate",
              "type": "uint256"
            },
            {
              "internalType": "uint256",
              "name": "issuanceExpiry",
              "type": "uint256"
            },
            {
              "internalType": "uint256",
              "name": "signed",
              "type": "uint256"
            },
            {
              "internalType": "uint256",
              "name": "signedDate",
              "type": "uint256"
            }
          ],
          "internalType": "struct PvContract.CitizenVisa[]",
          "name": "",
          "type": "tuple[]"
        }
      ],
      "payable": false,
      "stateMutability": "view",
      "type": "function"
    },
    {
      "constant": true,
      "inputs": [
        {
          "internalType": "address",
          "name": "citizen",
          "type": "address"
        }
      ],
      "name": "getCitizenImmigrations",
      "outputs": [
        {
          "components": [
            {
              "internalType": "address",
              "name": "citizenImmigrationAddress",
              "type": "address"
            },
            {
              "internalType": "address",
              "name": "citizenVisaAddress",
              "type": "address"
            },
            {
              "internalType": "address",
              "name": "citizenAddress",
              "type": "address"
            },
            {
              "internalType": "string",
              "name": "immigrationName",
              "type": "string"
            },
            {
              "internalType": "string",
              "name": "branchId",
              "type": "string"
            },
            {
              "internalType": "uint256",
              "name": "immigrationTime",
              "type": "uint256"
            },
            {
              "internalType": "uint256",
              "name": "isCheckIn",
              "type": "uint256"
            },
            {
              "internalType": "uint256",
              "name": "signed",
              "type": "uint256"
            },
            {
              "internalType": "uint256",
              "name": "signedDate",
              "type": "uint256"
            }
          ],
          "internalType": "struct PvContract.CitizenImmigration[]",
          "name": "",
          "type": "tuple[]"
        }
      ],
      "payable": false,
      "stateMutability": "view",
      "type": "function"
    },
    {
      "constant": false,
      "inputs": [
        {
          "internalType": "uint256",
          "name": "index",
          "type": "uint256"
        },
        {
          "internalType": "uint256",
          "name": "signed",
          "type": "uint256"
        }
      ],
      "name": "signPassport",
      "outputs": [],
      "payable": false,
      "stateMutability": "nonpayable",
      "type": "function"
    },
    {
      "constant": false,
      "inputs": [
        {
          "internalType": "uint256",
          "name": "index",
          "type": "uint256"
        },
        {
          "internalType": "uint256",
          "name": "signed",
          "type": "uint256"
        }
      ],
      "name": "signVisa",
      "outputs": [],
      "payable": false,
      "stateMutability": "nonpayable",
      "type": "function"
    },
    {
      "constant": false,
      "inputs": [
        {
          "internalType": "uint256",
          "name": "index",
          "type": "uint256"
        },
        {
          "internalType": "uint256",
          "name": "signed",
          "type": "uint256"
        }
      ],
      "name": "signImmigration",
      "outputs": [],
      "payable": false,
      "stateMutability": "nonpayable",
      "type": "function"
    }
  ],
  "bytecode": "0x60806040526000600155600060025534801561001a57600080fd5b506146518061002a6000396000f3fe608060405234801561001057600080fd5b50600436106101375760003560e01c80638b073e9e116100b8578063ca2ba11e1161007c578063ca2ba11e14610386578063d4f910a7146103a2578063f1d91f0f146103d8578063faeea01314610409578063fc11936b14610425578063fcc4bcc91461045657610137565b80638b073e9e146102b45780638ccbbac4146102d057806393144696146103005780639d43114a14610338578063c9cb26891461035657610137565b80635a4ec45a116100ff5780635a4ec45a1461021257806361c1230c1461023057806362185ad81461024c57806370bfd4a81461026857806371c7c0241461028457610137565b806306fdde031461013c5780631d90cf171461015a5780631e43aa0b146101765780631efce103146101a7578063256cc4f5146101e0575b600080fd5b61014461048e565b6040516101519190614282565b60405180910390f35b610174600480360361016f9190810190613875565b61052c565b005b610190600480360361018b9190810190613839565b6107bf565b60405161019e929190614215565b60405180910390f35b6101c160048036036101bc91908101906139d6565b61081d565b6040516101d79a9998979695949392919061416b565b60405180910390f35b6101fa60048036036101f591908101906139d6565b6109ee565b604051610209939291906142a4565b60405180910390f35b61021a610b75565b6040516102279190614428565b60405180910390f35b61024a600480360361024591908101906136f7565b610b7b565b005b61026660048036036102619190810190613943565b610f6b565b005b610282600480360361027d91908101906137b0565b611260565b005b61029e600480360361029991908101906136ce565b61162a565b6040516102ab9190614406565b60405180910390f35b6102ce60048036036102c991908101906139ff565b611b0c565b005b6102ea60048036036102e591908101906136ce565b611e46565b6040516102f79190614260565b60405180910390f35b61031a60048036036103159190810190613839565b6120ee565b60405161032f999897969594939291906140de565b60405180910390f35b6103406121b6565b60405161034d9190614428565b60405180910390f35b610370600480360361036b91908101906136ce565b6121bc565b60405161037d919061423e565b60405180910390f35b6103a0600480360361039b91908101906139ff565b612594565b005b6103bc60048036036103b791908101906136ce565b612a24565b6040516103cf97969594939291906142e9565b60405180910390f35b6103f260048036036103ed9190810190613839565b612bc3565b604051610400929190614215565b60405180910390f35b610423600480360361041e91908101906139ff565b612c21565b005b61043f600480360361043a9190810190613839565b613049565b60405161044d929190614215565b60405180910390f35b610470600480360361046b9190810190613839565b6130a7565b60405161048599989796959493929190614043565b60405180910390f35b60008054600181600116156101000203166002900480601f0160208091040260200160405190810160405280929190818152602001828054600181600116156101000203166002900480156105245780601f106104f957610100808354040283529160200191610524565b820191906000526020600020905b81548152906001019060200180831161050757829003601f168201915b505050505081565b60003390506071600360008373ffffffffffffffffffffffffffffffffffffffff1673ffffffffffffffffffffffffffffffffffffffff16815260200190815260200160002060030154146105b6576040517f08c379a00000000000000000000000000000000000000000000000000000000081526004016105ad90614366565b60405180910390fd5b60096040518061014001604052808373ffffffffffffffffffffffffffffffffffffffff1681526020018a73ffffffffffffffffffffffffffffffffffffffff1681526020018981526020018881526020018781526020018681526020018581526020018481526020016000815260200160008152509080600181540180825580915050906001820390600052602060002090600a02016000909192909190915060008201518160000160006101000a81548173ffffffffffffffffffffffffffffffffffffffff021916908373ffffffffffffffffffffffffffffffffffffffff16021790555060208201518160010160006101000a81548173ffffffffffffffffffffffffffffffffffffffff021916908373ffffffffffffffffffffffffffffffffffffffff1602179055506040820151816002015560608201518160030155608082015181600401908051906020019061071592919061329f565b5060a0820151816005015560c0820151816006015560e082015181600701908051906020019061074692919061329f565b50610100820151816008015561012082015181600901555050506000600160098054905003905080600360008b73ffffffffffffffffffffffffffffffffffffffff1673ffffffffffffffffffffffffffffffffffffffff16815260200190815260200160002060050181905550505050505050505050565b600860205281600052604060002081815481106107d857fe5b9060005260206000209060020201600091509150508060000160009054906101000a900473ffffffffffffffffffffffffffffffffffffffff16908060010154905082565b6009818154811061082a57fe5b90600052602060002090600a02016000915090508060000160009054906101000a900473ffffffffffffffffffffffffffffffffffffffff16908060010160009054906101000a900473ffffffffffffffffffffffffffffffffffffffff1690806002015490806003015490806004018054600181600116156101000203166002900480601f01602080910402602001604051908101604052809291908181526020018280546001816001161561010002031660029004801561092e5780601f106109035761010080835404028352916020019161092e565b820191906000526020600020905b81548152906001019060200180831161091157829003601f168201915b505050505090806005015490806006015490806007018054600181600116156101000203166002900480601f0160208091040260200160405190810160405280929190818152602001828054600181600116156101000203166002900480156109d85780601f106109ad576101008083540402835291602001916109d8565b820191906000526020600020905b8154815290600101906020018083116109bb57829003601f168201915b505050505090806008015490806009015490508a565b600a81815481106109fb57fe5b9060005260206000209060030201600091509050806000018054600181600116156101000203166002900480601f016020809104026020016040519081016040528092919081815260200182805460018160011615610100020316600290048015610aa75780601f10610a7c57610100808354040283529160200191610aa7565b820191906000526020600020905b815481529060010190602001808311610a8a57829003601f168201915b505050505090806001018054600181600116156101000203166002900480601f016020809104026020016040519081016040528092919081815260200182805460018160011615610100020316600290048015610b455780601f10610b1a57610100808354040283529160200191610b45565b820191906000526020600020905b815481529060010190602001808311610b2857829003601f168201915b5050505050908060020160009054906101000a900473ffffffffffffffffffffffffffffffffffffffff16905083565b60025481565b60003390506075600360008373ffffffffffffffffffffffffffffffffffffffff1673ffffffffffffffffffffffffffffffffffffffff1681526020019081526020016000206003015414610c05576040517f08c379a0000000000000000000000000000000000000000000000000000000008152600401610bfc906143c6565b60405180910390fd5b600560008773ffffffffffffffffffffffffffffffffffffffff1673ffffffffffffffffffffffffffffffffffffffff1681526020019081526020016000206040518061012001604052808373ffffffffffffffffffffffffffffffffffffffff1681526020018973ffffffffffffffffffffffffffffffffffffffff1681526020018873ffffffffffffffffffffffffffffffffffffffff1681526020018781526020018681526020018581526020018481526020016000815260200160008152509080600181540180825580915050906001820390600052602060002090600902016000909192909190915060008201518160000160006101000a81548173ffffffffffffffffffffffffffffffffffffffff021916908373ffffffffffffffffffffffffffffffffffffffff16021790555060208201518160010160006101000a81548173ffffffffffffffffffffffffffffffffffffffff021916908373ffffffffffffffffffffffffffffffffffffffff16021790555060408201518160020160006101000a81548173ffffffffffffffffffffffffffffffffffffffff021916908373ffffffffffffffffffffffffffffffffffffffff1602179055506060820151816003019080519060200190610de492919061329f565b506080820151816004019080519060200190610e0192919061329f565b5060a0820151816005015560c0820151816006015560e08201518160070155610100820151816008015550505060006001600560008973ffffffffffffffffffffffffffffffffffffffff1673ffffffffffffffffffffffffffffffffffffffff16815260200190815260200160002080549050039050600860008373ffffffffffffffffffffffffffffffffffffffff1673ffffffffffffffffffffffffffffffffffffffff16815260200190815260200160002060405180604001604052808973ffffffffffffffffffffffffffffffffffffffff168152602001838152509080600181540180825580915050906001820390600052602060002090600202016000909192909190915060008201518160000160006101000a81548173ffffffffffffffffffffffffffffffffffffffff021916908373ffffffffffffffffffffffffffffffffffffffff160217905550602082015181600101555050505050505050505050565b6000339050600360008273ffffffffffffffffffffffffffffffffffffffff1673ffffffffffffffffffffffffffffffffffffffff16815260200190815260200160002060060160009054906101000a900460ff1615611000576040517f08c379a0000000000000000000000000000000000000000000000000000000008152600401610ff7906143a6565b60405180910390fd5b6040518060e001604052808681526020018581526020013373ffffffffffffffffffffffffffffffffffffffff1681526020018481526020018381526020017fffffffffffffffffffffffffffffffffffffffffffffffffffffffffffffffff815260200160011515815250600360008373ffffffffffffffffffffffffffffffffffffffff1673ffffffffffffffffffffffffffffffffffffffff16815260200190815260200160002060008201518160000190805190602001906110c792919061329f565b5060208201518160010190805190602001906110e492919061329f565b5060408201518160020160006101000a81548173ffffffffffffffffffffffffffffffffffffffff021916908373ffffffffffffffffffffffffffffffffffffffff160217905550606082015181600301556080820151816004015560a0820151816005015560c08201518160060160006101000a81548160ff021916908315150217905550905050606683141561125957600a60405180606001604052808781526020018681526020013373ffffffffffffffffffffffffffffffffffffffff168152509080600181540180825580915050906001820390600052602060002090600302016000909192909190915060008201518160000190805190602001906111f092919061329f565b50602082015181600101908051906020019061120d92919061329f565b5060408201518160020160006101000a81548173ffffffffffffffffffffffffffffffffffffffff021916908373ffffffffffffffffffffffffffffffffffffffff1602179055505050505b5050505050565b60003390506073600360008373ffffffffffffffffffffffffffffffffffffffff1673ffffffffffffffffffffffffffffffffffffffff16815260200190815260200160002060030154146112ea576040517f08c379a00000000000000000000000000000000000000000000000000000000081526004016112e1906143e6565b60405180910390fd5b600460008873ffffffffffffffffffffffffffffffffffffffff1673ffffffffffffffffffffffffffffffffffffffff1681526020019081526020016000206040518061012001604052808373ffffffffffffffffffffffffffffffffffffffff1681526020018973ffffffffffffffffffffffffffffffffffffffff1681526020018873ffffffffffffffffffffffffffffffffffffffff1681526020018781526020018681526020018581526020018481526020016000815260200160008152509080600181540180825580915050906001820390600052602060002090600902016000909192909190915060008201518160000160006101000a81548173ffffffffffffffffffffffffffffffffffffffff021916908373ffffffffffffffffffffffffffffffffffffffff16021790555060208201518160010160006101000a81548173ffffffffffffffffffffffffffffffffffffffff021916908373ffffffffffffffffffffffffffffffffffffffff16021790555060408201518160020160006101000a81548173ffffffffffffffffffffffffffffffffffffffff021916908373ffffffffffffffffffffffffffffffffffffffff160217905550606082015181600301556080820151816004015560a0820151816005015560c0820151816006015560e08201518160070155610100820151816008015550505060006001600460008a73ffffffffffffffffffffffffffffffffffffffff1673ffffffffffffffffffffffffffffffffffffffff16815260200190815260200160002080549050039050600760008373ffffffffffffffffffffffffffffffffffffffff1673ffffffffffffffffffffffffffffffffffffffff16815260200190815260200160002060405180604001604052808a73ffffffffffffffffffffffffffffffffffffffff168152602001838152509080600181540180825580915050906001820390600052602060002090600202016000909192909190915060008201518160000160006101000a81548173ffffffffffffffffffffffffffffffffffffffff021916908373ffffffffffffffffffffffffffffffffffffffff160217905550602082015181600101555050505050505050505050565b61163261331f565b61163a61339e565b600360008473ffffffffffffffffffffffffffffffffffffffff1673ffffffffffffffffffffffffffffffffffffffff1681526020019081526020016000206040518060e0016040529081600082018054600181600116156101000203166002900480601f01602080910402602001604051908101604052809291908181526020018280546001816001161561010002031660029004801561171d5780601f106116f25761010080835404028352916020019161171d565b820191906000526020600020905b81548152906001019060200180831161170057829003601f168201915b50505050508152602001600182018054600181600116156101000203166002900480601f0160208091040260200160405190810160405280929190818152602001828054600181600116156101000203166002900480156117bf5780601f10611794576101008083540402835291602001916117bf565b820191906000526020600020905b8154815290600101906020018083116117a257829003601f168201915b505050505081526020016002820160009054906101000a900473ffffffffffffffffffffffffffffffffffffffff1673ffffffffffffffffffffffffffffffffffffffff1673ffffffffffffffffffffffffffffffffffffffff1681526020016003820154815260200160048201548152602001600582015481526020016006820160009054906101000a900460ff161515151581525050905060008160a0015112156118a1576040517f08c379a000000000000000000000000000000000000000000000000000000000815260040161189890614386565b60405180910390fd5b6118a961331f565b60098260a00151815481106118ba57fe5b90600052602060002090600a0201604051806101400160405290816000820160009054906101000a900473ffffffffffffffffffffffffffffffffffffffff1673ffffffffffffffffffffffffffffffffffffffff1673ffffffffffffffffffffffffffffffffffffffff1681526020016001820160009054906101000a900473ffffffffffffffffffffffffffffffffffffffff1673ffffffffffffffffffffffffffffffffffffffff1673ffffffffffffffffffffffffffffffffffffffff1681526020016002820154815260200160038201548152602001600482018054600181600116156101000203166002900480601f016020809104026020016040519081016040528092919081815260200182805460018160011615610100020316600290048015611a2d5780601f10611a0257610100808354040283529160200191611a2d565b820191906000526020600020905b815481529060010190602001808311611a1057829003601f168201915b505050505081526020016005820154815260200160068201548152602001600782018054600181600116156101000203166002900480601f016020809104026020016040519081016040528092919081815260200182805460018160011615610100020316600290048015611ae35780601f10611ab857610100808354040283529160200191611ae3565b820191906000526020600020905b815481529060010190602001808311611ac657829003601f168201915b505050505081526020016008820154815260200160098201548152505090508092505050919050565b6000339050611b196133f3565b600460008373ffffffffffffffffffffffffffffffffffffffff1673ffffffffffffffffffffffffffffffffffffffff1681526020019081526020016000208481548110611b6357fe5b9060005260206000209060090201604051806101200160405290816000820160009054906101000a900473ffffffffffffffffffffffffffffffffffffffff1673ffffffffffffffffffffffffffffffffffffffff1673ffffffffffffffffffffffffffffffffffffffff1681526020016001820160009054906101000a900473ffffffffffffffffffffffffffffffffffffffff1673ffffffffffffffffffffffffffffffffffffffff1673ffffffffffffffffffffffffffffffffffffffff1681526020016002820160009054906101000a900473ffffffffffffffffffffffffffffffffffffffff1673ffffffffffffffffffffffffffffffffffffffff1673ffffffffffffffffffffffffffffffffffffffff16815260200160038201548152602001600482015481526020016005820154815260200160068201548152602001600782015481526020016008820154815250509050828160e0018181525050428161010001818152505080600460008473ffffffffffffffffffffffffffffffffffffffff1673ffffffffffffffffffffffffffffffffffffffff1681526020019081526020016000208581548110611d1d57fe5b906000526020600020906009020160008201518160000160006101000a81548173ffffffffffffffffffffffffffffffffffffffff021916908373ffffffffffffffffffffffffffffffffffffffff16021790555060208201518160010160006101000a81548173ffffffffffffffffffffffffffffffffffffffff021916908373ffffffffffffffffffffffffffffffffffffffff16021790555060408201518160020160006101000a81548173ffffffffffffffffffffffffffffffffffffffff021916908373ffffffffffffffffffffffffffffffffffffffff160217905550606082015181600301556080820151816004015560a0820151816005015560c0820151816006015560e08201518160070155610100820151816008015590505050505050565b606080600460008473ffffffffffffffffffffffffffffffffffffffff1673ffffffffffffffffffffffffffffffffffffffff16815260200190815260200160002080549050604051908082528060200260200182016040528015611ec557816020015b611eb2613481565b815260200190600190039081611eaa5790505b50905060008090505b600460008573ffffffffffffffffffffffffffffffffffffffff1673ffffffffffffffffffffffffffffffffffffffff168152602001908152602001600020805490508110156120e4576000600460008673ffffffffffffffffffffffffffffffffffffffff1673ffffffffffffffffffffffffffffffffffffffff1681526020019081526020016000208281548110611f6457fe5b9060005260206000209060090201905080604051806101200160405290816000820160009054906101000a900473ffffffffffffffffffffffffffffffffffffffff1673ffffffffffffffffffffffffffffffffffffffff1673ffffffffffffffffffffffffffffffffffffffff1681526020016001820160009054906101000a900473ffffffffffffffffffffffffffffffffffffffff1673ffffffffffffffffffffffffffffffffffffffff1673ffffffffffffffffffffffffffffffffffffffff1681526020016002820160009054906101000a900473ffffffffffffffffffffffffffffffffffffffff1673ffffffffffffffffffffffffffffffffffffffff1673ffffffffffffffffffffffffffffffffffffffff16815260200160038201548152602001600482015481526020016005820154815260200160068201548152602001600782015481526020016008820154815250508383815181106120cb57fe5b6020026020010181905250508080600101915050611ece565b5080915050919050565b6004602052816000526040600020818154811061210757fe5b9060005260206000209060090201600091509150508060000160009054906101000a900473ffffffffffffffffffffffffffffffffffffffff16908060010160009054906101000a900473ffffffffffffffffffffffffffffffffffffffff16908060020160009054906101000a900473ffffffffffffffffffffffffffffffffffffffff16908060030154908060040154908060050154908060060154908060070154908060080154905089565b60015481565b606080600560008473ffffffffffffffffffffffffffffffffffffffff1673ffffffffffffffffffffffffffffffffffffffff1681526020019081526020016000208054905060405190808252806020026020018201604052801561223b57816020015b61222861350f565b8152602001906001900390816122205790505b50905060008090505b600560008573ffffffffffffffffffffffffffffffffffffffff1673ffffffffffffffffffffffffffffffffffffffff1681526020019081526020016000208054905081101561258a576000600560008673ffffffffffffffffffffffffffffffffffffffff1673ffffffffffffffffffffffffffffffffffffffff16815260200190815260200160002082815481106122da57fe5b9060005260206000209060090201905080604051806101200160405290816000820160009054906101000a900473ffffffffffffffffffffffffffffffffffffffff1673ffffffffffffffffffffffffffffffffffffffff1673ffffffffffffffffffffffffffffffffffffffff1681526020016001820160009054906101000a900473ffffffffffffffffffffffffffffffffffffffff1673ffffffffffffffffffffffffffffffffffffffff1673ffffffffffffffffffffffffffffffffffffffff1681526020016002820160009054906101000a900473ffffffffffffffffffffffffffffffffffffffff1673ffffffffffffffffffffffffffffffffffffffff1673ffffffffffffffffffffffffffffffffffffffff168152602001600382018054600181600116156101000203166002900480601f0160208091040260200160405190810160405280929190818152602001828054600181600116156101000203166002900480156124925780601f1061246757610100808354040283529160200191612492565b820191906000526020600020905b81548152906001019060200180831161247557829003601f168201915b50505050508152602001600482018054600181600116156101000203166002900480601f0160208091040260200160405190810160405280929190818152602001828054600181600116156101000203166002900480156125345780601f1061250957610100808354040283529160200191612534565b820191906000526020600020905b81548152906001019060200180831161251757829003601f168201915b5050505050815260200160058201548152602001600682015481526020016007820154815260200160088201548152505083838151811061257157fe5b6020026020010181905250508080600101915050612244565b5080915050919050565b60003390506125a161359d565b600560008373ffffffffffffffffffffffffffffffffffffffff1673ffffffffffffffffffffffffffffffffffffffff16815260200190815260200160002084815481106125eb57fe5b9060005260206000209060090201604051806101200160405290816000820160009054906101000a900473ffffffffffffffffffffffffffffffffffffffff1673ffffffffffffffffffffffffffffffffffffffff1673ffffffffffffffffffffffffffffffffffffffff1681526020016001820160009054906101000a900473ffffffffffffffffffffffffffffffffffffffff1673ffffffffffffffffffffffffffffffffffffffff1673ffffffffffffffffffffffffffffffffffffffff1681526020016002820160009054906101000a900473ffffffffffffffffffffffffffffffffffffffff1673ffffffffffffffffffffffffffffffffffffffff1673ffffffffffffffffffffffffffffffffffffffff168152602001600382018054600181600116156101000203166002900480601f0160208091040260200160405190810160405280929190818152602001828054600181600116156101000203166002900480156127a05780601f10612775576101008083540402835291602001916127a0565b820191906000526020600020905b81548152906001019060200180831161278357829003601f168201915b50505050508152602001600482018054600181600116156101000203166002900480601f0160208091040260200160405190810160405280929190818152602001828054600181600116156101000203166002900480156128425780601f1061281757610100808354040283529160200191612842565b820191906000526020600020905b81548152906001019060200180831161282557829003601f168201915b505050505081526020016005820154815260200160068201548152602001600782015481526020016008820154815250509050828160e0018181525050428161010001818152505080600560008473ffffffffffffffffffffffffffffffffffffffff1673ffffffffffffffffffffffffffffffffffffffff16815260200190815260200160002085815481106128d557fe5b906000526020600020906009020160008201518160000160006101000a81548173ffffffffffffffffffffffffffffffffffffffff021916908373ffffffffffffffffffffffffffffffffffffffff16021790555060208201518160010160006101000a81548173ffffffffffffffffffffffffffffffffffffffff021916908373ffffffffffffffffffffffffffffffffffffffff16021790555060408201518160020160006101000a81548173ffffffffffffffffffffffffffffffffffffffff021916908373ffffffffffffffffffffffffffffffffffffffff16021790555060608201518160030190805190602001906129d492919061329f565b5060808201518160040190805190602001906129f192919061329f565b5060a0820151816005015560c0820151816006015560e08201518160070155610100820151816008015590505050505050565b6003602052806000526040600020600091509050806000018054600181600116156101000203166002900480601f016020809104026020016040519081016040528092919081815260200182805460018160011615610100020316600290048015612ad05780601f10612aa557610100808354040283529160200191612ad0565b820191906000526020600020905b815481529060010190602001808311612ab357829003601f168201915b505050505090806001018054600181600116156101000203166002900480601f016020809104026020016040519081016040528092919081815260200182805460018160011615610100020316600290048015612b6e5780601f10612b4357610100808354040283529160200191612b6e565b820191906000526020600020905b815481529060010190602001808311612b5157829003601f168201915b5050505050908060020160009054906101000a900473ffffffffffffffffffffffffffffffffffffffff16908060030154908060040154908060050154908060060160009054906101000a900460ff16905087565b60066020528160005260406000208181548110612bdc57fe5b9060005260206000209060020201600091509150508060000160009054906101000a900473ffffffffffffffffffffffffffffffffffffffff16908060010154905082565b60003390506071600360008373ffffffffffffffffffffffffffffffffffffffff1673ffffffffffffffffffffffffffffffffffffffff1681526020019081526020016000206003015414612cab576040517f08c379a0000000000000000000000000000000000000000000000000000000008152600401612ca290614366565b60405180910390fd5b612cb361331f565b60098481548110612cc057fe5b90600052602060002090600a0201604051806101400160405290816000820160009054906101000a900473ffffffffffffffffffffffffffffffffffffffff1673ffffffffffffffffffffffffffffffffffffffff1673ffffffffffffffffffffffffffffffffffffffff1681526020016001820160009054906101000a900473ffffffffffffffffffffffffffffffffffffffff1673ffffffffffffffffffffffffffffffffffffffff1673ffffffffffffffffffffffffffffffffffffffff1681526020016002820154815260200160038201548152602001600482018054600181600116156101000203166002900480601f016020809104026020016040519081016040528092919081815260200182805460018160011615610100020316600290048015612e335780601f10612e0857610100808354040283529160200191612e33565b820191906000526020600020905b815481529060010190602001808311612e1657829003601f168201915b505050505081526020016005820154815260200160068201548152602001600782018054600181600116156101000203166002900480601f016020809104026020016040519081016040528092919081815260200182805460018160011615610100020316600290048015612ee95780601f10612ebe57610100808354040283529160200191612ee9565b820191906000526020600020905b815481529060010190602001808311612ecc57829003601f168201915b50505050508152602001600882015481526020016009820154815250509050828161010001818152505042816101200181815250508060098581548110612f2c57fe5b90600052602060002090600a020160008201518160000160006101000a81548173ffffffffffffffffffffffffffffffffffffffff021916908373ffffffffffffffffffffffffffffffffffffffff16021790555060208201518160010160006101000a81548173ffffffffffffffffffffffffffffffffffffffff021916908373ffffffffffffffffffffffffffffffffffffffff16021790555060408201518160020155606082015181600301556080820151816004019080519060200190612ff892919061329f565b5060a0820151816005015560c0820151816006015560e082015181600701908051906020019061302992919061329f565b506101008201518160080155610120820151816009015590505050505050565b6007602052816000526040600020818154811061306257fe5b9060005260206000209060020201600091509150508060000160009054906101000a900473ffffffffffffffffffffffffffffffffffffffff16908060010154905082565b600560205281600052604060002081815481106130c057fe5b9060005260206000209060090201600091509150508060000160009054906101000a900473ffffffffffffffffffffffffffffffffffffffff16908060010160009054906101000a900473ffffffffffffffffffffffffffffffffffffffff16908060020160009054906101000a900473ffffffffffffffffffffffffffffffffffffffff1690806003018054600181600116156101000203166002900480601f0160208091040260200160405190810160405280929190818152602001828054600181600116156101000203166002900480156131df5780601f106131b4576101008083540402835291602001916131df565b820191906000526020600020905b8154815290600101906020018083116131c257829003601f168201915b505050505090806004018054600181600116156101000203166002900480601f01602080910402602001604051908101604052809291908181526020018280546001816001161561010002031660029004801561327d5780601f106132525761010080835404028352916020019161327d565b820191906000526020600020905b81548152906001019060200180831161326057829003601f168201915b5050505050908060050154908060060154908060070154908060080154905089565b828054600181600116156101000203166002900490600052602060002090601f016020900481019282601f106132e057805160ff191683800117855561330e565b8280016001018555821561330e579182015b8281111561330d5782518255916020019190600101906132f2565b5b50905061331b919061362b565b5090565b604051806101400160405280600073ffffffffffffffffffffffffffffffffffffffff168152602001600073ffffffffffffffffffffffffffffffffffffffff16815260200160008152602001600081526020016060815260200160008152602001600081526020016060815260200160008152602001600081525090565b6040518060e001604052806060815260200160608152602001600073ffffffffffffffffffffffffffffffffffffffff1681526020016000815260200160008152602001600081526020016000151581525090565b604051806101200160405280600073ffffffffffffffffffffffffffffffffffffffff168152602001600073ffffffffffffffffffffffffffffffffffffffff168152602001600073ffffffffffffffffffffffffffffffffffffffff1681526020016000815260200160008152602001600081526020016000815260200160008152602001600081525090565b604051806101200160405280600073ffffffffffffffffffffffffffffffffffffffff168152602001600073ffffffffffffffffffffffffffffffffffffffff168152602001600073ffffffffffffffffffffffffffffffffffffffff1681526020016000815260200160008152602001600081526020016000815260200160008152602001600081525090565b604051806101200160405280600073ffffffffffffffffffffffffffffffffffffffff168152602001600073ffffffffffffffffffffffffffffffffffffffff168152602001600073ffffffffffffffffffffffffffffffffffffffff1681526020016060815260200160608152602001600081526020016000815260200160008152602001600081525090565b604051806101200160405280600073ffffffffffffffffffffffffffffffffffffffff168152602001600073ffffffffffffffffffffffffffffffffffffffff168152602001600073ffffffffffffffffffffffffffffffffffffffff1681526020016060815260200160608152602001600081526020016000815260200160008152602001600081525090565b61364d91905b80821115613649576000816000905550600101613631565b5090565b90565b60008135905061365f816145e0565b92915050565b600082601f83011261367657600080fd5b813561368961368482614470565b614443565b915080825260208301602083018583830111156136a557600080fd5b6136b083828461458d565b50505092915050565b6000813590506136c8816145f7565b92915050565b6000602082840312156136e057600080fd5b60006136ee84828501613650565b91505092915050565b60008060008060008060c0878903121561371057600080fd5b600061371e89828a01613650565b965050602061372f89828a01613650565b955050604087013567ffffffffffffffff81111561374c57600080fd5b61375889828a01613665565b945050606087013567ffffffffffffffff81111561377557600080fd5b61378189828a01613665565b935050608061379289828a016136b9565b92505060a06137a389828a016136b9565b9150509295509295509295565b60008060008060008060c087890312156137c957600080fd5b60006137d789828a01613650565b96505060206137e889828a01613650565b95505060406137f989828a016136b9565b945050606061380a89828a016136b9565b935050608061381b89828a016136b9565b92505060a061382c89828a016136b9565b9150509295509295509295565b6000806040838503121561384c57600080fd5b600061385a85828601613650565b925050602061386b858286016136b9565b9150509250929050565b600080600080600080600060e0888a03121561389057600080fd5b600061389e8a828b01613650565b97505060206138af8a828b016136b9565b96505060406138c08a828b016136b9565b955050606088013567ffffffffffffffff8111156138dd57600080fd5b6138e98a828b01613665565b94505060806138fa8a828b016136b9565b93505060a061390b8a828b016136b9565b92505060c088013567ffffffffffffffff81111561392857600080fd5b6139348a828b01613665565b91505092959891949750929550565b6000806000806080858703121561395957600080fd5b600085013567ffffffffffffffff81111561397357600080fd5b61397f87828801613665565b945050602085013567ffffffffffffffff81111561399c57600080fd5b6139a887828801613665565b93505060406139b9878288016136b9565b92505060606139ca878288016136b9565b91505092959194509250565b6000602082840312156139e857600080fd5b60006139f6848285016136b9565b91505092915050565b60008060408385031215613a1257600080fd5b6000613a20858286016136b9565b9250506020613a31858286016136b9565b9150509250929050565b6000613a478383613dc1565b905092915050565b6000613a5b8383613f6e565b6101208301905092915050565b613a718161453b565b82525050565b613a808161453b565b82525050565b6000613a91826144bc565b613a9b81856144f7565b935083602082028501613aad8561449c565b8060005b85811015613ae95784840389528151613aca8582613a3b565b9450613ad5836144dd565b925060208a01995050600181019050613ab1565b50829750879550505050505092915050565b6000613b06826144c7565b613b108185614508565b9350613b1b836144ac565b8060005b83811015613b4c578151613b338882613a4f565b9750613b3e836144ea565b925050600181019050613b1f565b5085935050505092915050565b613b628161454d565b82525050565b613b7181614559565b82525050565b6000613b82826144d2565b613b8c8185614519565b9350613b9c81856020860161459c565b613ba5816145cf565b840191505092915050565b6000613bbb826144d2565b613bc5818561452a565b9350613bd581856020860161459c565b613bde816145cf565b840191505092915050565b6000613bf660268361452a565b91507f244e6f7420417574686f72697a656420666f722050617373706f72742043726560008301527f6174696f6e2400000000000000000000000000000000000000000000000000006020830152604082019050919050565b6000613c5c60138361452a565b91507f244e6f2050617373706f727420466f756e6424000000000000000000000000006000830152602082019050919050565b6000613c9c60218361452a565b91507f24436974697a656e206164647265737320616c72656164792070726573656e7460008301527f24000000000000000000000000000000000000000000000000000000000000006020830152604082019050919050565b6000613d0260318361452a565b91507f244e6f7420417574686f72697a656420666f7220496d6d6967726174696f6e2060008301527f52657175657374204372656174696f6e240000000000000000000000000000006020830152604082019050919050565b6000613d6860228361452a565b91507f244e6f7420417574686f72697a656420666f722056697361204372656174696f60008301527f6e240000000000000000000000000000000000000000000000000000000000006020830152604082019050919050565b600061012083016000830151613dda6000860182613a68565b506020830151613ded6020860182613a68565b506040830151613e006040860182613a68565b5060608301518482036060860152613e188282613b77565b91505060808301518482036080860152613e328282613b77565b91505060a0830151613e4760a0860182614025565b5060c0830151613e5a60c0860182614025565b5060e0830151613e6d60e0860182614025565b50610100830151613e82610100860182614025565b508091505092915050565b600061014083016000830151613ea66000860182613a68565b506020830151613eb96020860182613a68565b506040830151613ecc6040860182614025565b506060830151613edf6060860182614025565b5060808301518482036080860152613ef78282613b77565b91505060a0830151613f0c60a0860182614025565b5060c0830151613f1f60c0860182614025565b5060e083015184820360e0860152613f378282613b77565b915050610100830151613f4e610100860182614025565b50610120830151613f63610120860182614025565b508091505092915050565b61012082016000820151613f856000850182613a68565b506020820151613f986020850182613a68565b506040820151613fab6040850182613a68565b506060820151613fbe6060850182614025565b506080820151613fd16080850182614025565b5060a0820151613fe460a0850182614025565b5060c0820151613ff760c0850182614025565b5060e082015161400a60e0850182614025565b5061010082015161401f610100850182614025565b50505050565b61402e81614583565b82525050565b61403d81614583565b82525050565b600061012082019050614059600083018c613a77565b614066602083018b613a77565b614073604083018a613a77565b81810360608301526140858189613bb0565b905081810360808301526140998188613bb0565b90506140a860a0830187614034565b6140b560c0830186614034565b6140c260e0830185614034565b6140d0610100830184614034565b9a9950505050505050505050565b6000610120820190506140f4600083018c613a77565b614101602083018b613a77565b61410e604083018a613a77565b61411b6060830189614034565b6141286080830188614034565b61413560a0830187614034565b61414260c0830186614034565b61414f60e0830185614034565b61415d610100830184614034565b9a9950505050505050505050565b600061014082019050614181600083018d613a77565b61418e602083018c613a77565b61419b604083018b614034565b6141a8606083018a614034565b81810360808301526141ba8189613bb0565b90506141c960a0830188614034565b6141d660c0830187614034565b81810360e08301526141e88186613bb0565b90506141f8610100830185614034565b614206610120830184614034565b9b9a5050505050505050505050565b600060408201905061422a6000830185613a77565b6142376020830184614034565b9392505050565b600060208201905081810360008301526142588184613a86565b905092915050565b6000602082019050818103600083015261427a8184613afb565b905092915050565b6000602082019050818103600083015261429c8184613bb0565b905092915050565b600060608201905081810360008301526142be8186613bb0565b905081810360208301526142d28185613bb0565b90506142e16040830184613a77565b949350505050565b600060e0820190508181036000830152614303818a613bb0565b905081810360208301526143178189613bb0565b90506143266040830188613a77565b6143336060830187614034565b6143406080830186614034565b61434d60a0830185613b68565b61435a60c0830184613b59565b98975050505050505050565b6000602082019050818103600083015261437f81613be9565b9050919050565b6000602082019050818103600083015261439f81613c4f565b9050919050565b600060208201905081810360008301526143bf81613c8f565b9050919050565b600060208201905081810360008301526143df81613cf5565b9050919050565b600060208201905081810360008301526143ff81613d5b565b9050919050565b600060208201905081810360008301526144208184613e8d565b905092915050565b600060208201905061443d6000830184614034565b92915050565b6000604051905081810181811067ffffffffffffffff8211171561446657600080fd5b8060405250919050565b600067ffffffffffffffff82111561448757600080fd5b601f19601f8301169050602081019050919050565b6000819050602082019050919050565b6000819050602082019050919050565b600081519050919050565b600081519050919050565b600081519050919050565b6000602082019050919050565b6000602082019050919050565b600082825260208201905092915050565b600082825260208201905092915050565b600082825260208201905092915050565b600082825260208201905092915050565b600061454682614563565b9050919050565b60008115159050919050565b6000819050919050565b600073ffffffffffffffffffffffffffffffffffffffff82169050919050565b6000819050919050565b82818337600083830152505050565b60005b838110156145ba57808201518184015260208101905061459f565b838111156145c9576000848401525b50505050565b6000601f19601f8301169050919050565b6145e98161453b565b81146145f457600080fd5b50565b61460081614583565b811461460b57600080fd5b5056fea365627a7a72315820b14d0dd91d3eac4703f51b77f5813f03eec5f8c2b0a832beaaf585dd2a00a5d76c6578706572696d656e74616cf564736f6c63430005100040",
  "source": "pragma solidity ^0.5.16;\r\npragma experimental ABIEncoderV2;\r\n\r\ncontract PvContract {\r\n\r\n    string public name;\r\n    uint public passportCount = 0;\r\n    uint public visaCount = 0;\r\n\r\n    struct Citizen {\r\n        string citizenName;\r\n        string identityNo;\r\n        address citizenAddress;\r\n        uint userType;\r\n        uint portalId;\r\n        int passportIndex;\r\n        bool exists;\r\n    }\r\n\r\n    struct CitizenPassport {\r\n        address citizenPassportAddress;\r\n        address citizenAddress;\r\n        uint passportAgencyId;\r\n        uint passportBranchId;\r\n        string passportType;\r\n        uint256 issuanceExpiry;\r\n        uint256 issuanceDate;\r\n        string status;\r\n        uint signed;\r\n        uint256 signedDate;\r\n    }\r\n\r\n    struct CitizenVisa {\r\n        address citizenVisaAddress;\r\n        address citizenAddress;\r\n        address citizenPassportAddress;\r\n\r\n        uint foreignVisaAgencyBranchId;\r\n        uint foreignVisaAgencyId;\r\n        uint256 issuanceDate;\r\n        uint256 issuanceExpiry;\r\n        uint signed;\r\n        uint256 signedDate;\r\n    }\r\n\r\n    struct CitizenImmigration {\r\n        address citizenImmigrationAddress;\r\n        address citizenVisaAddress;\r\n        address citizenAddress;\r\n        string immigrationName;\r\n        string branchId;\r\n        uint256 immigrationTime;\r\n        uint isCheckIn; //0 means check in, 1 means checkout\r\n        uint signed;\r\n        uint256 signedDate;\r\n    }\r\n\r\n    struct PvCitizenPassport {\r\n        address citizenAddress;\r\n        uint citizenPassportId;\r\n    }\r\n\r\n    struct PvCitizenVisa {\r\n        address citizenAddress;\r\n        uint citizenVisaId;\r\n    }\r\n\r\n    struct PvCitizenImmigration {\r\n        address citizenAddress;\r\n        uint citizenImmigrationId;\r\n    }\r\n\r\n    struct PvCitizen {\r\n        string citizenName;\r\n        string identityNo;\r\n        address citizenAddress;\r\n    }\r\n\r\n\r\n    mapping(address => Citizen) public citizens;\r\n    mapping(address => CitizenVisa[]) public citizenVisas;\r\n    mapping(address => CitizenImmigration[]) public citizenImmigrations;\r\n    mapping(address => PvCitizenPassport[]) public pvCitizenPassports;\r\n    mapping(address => PvCitizenVisa[]) public pvCitizenVisas;\r\n    mapping(address => PvCitizenImmigration[]) public pvCitizenImmigrations;\r\n\r\n    CitizenPassport[] public citizenPassports;\r\n    PvCitizen[] public pvCitizens;\r\n\r\n\r\n    constructor() public {\r\n    }\r\n\r\n    function createCitizen(string memory citizenName, string memory identityNo, uint userType, uint portalId) public {\r\n        address user = msg.sender;\r\n        require(!citizens[user].exists, \"$Citizen address already present$\");\r\n\r\n        citizens[user] = Citizen(citizenName, identityNo, msg.sender, userType, portalId, -1,true);\r\n        if (userType == 102) {\r\n            pvCitizens.push(PvCitizen(citizenName, identityNo, msg.sender));\r\n        }\r\n    }\r\n\r\n    function createCitizenPassport(address citizenAddress, uint passportAgencyId, uint passportBranchId,\r\n        string memory passportType, uint256 issuanceExpiry, uint256 issuanceDate,\r\n        string memory status) public {\r\n\r\n        address passportAgency = msg.sender;\r\n        require(citizens[passportAgency].userType == 113, \"$Not Authorized for Passport Creation$\");\r\n\r\n        citizenPassports.push(CitizenPassport(passportAgency, citizenAddress, passportAgencyId, passportBranchId,\r\n            passportType, issuanceExpiry, issuanceDate, status, 0, 0));\r\n\r\n        uint passportIndex = citizenPassports.length - 1;\r\n        // pvCitizenPassports[passportAgency].push(PvCitizenPassport(citizenAddress, passportIndex));\r\n        citizens[citizenAddress].passportIndex = int256(passportIndex);\r\n    }\r\n\r\n    function createCitizenVisa(address citizenAddress, address citizenPassportAddress,\r\n        uint foreignVisaAgencyBranchId, uint foreignVisaAgencyId,\r\n        uint256 issuanceDate, uint256 issuanceExpiry) public {\r\n\r\n        address visaAgency = msg.sender;\r\n        require(citizens[visaAgency].userType == 115, \"$Not Authorized for Visa Creation$\");\r\n\r\n        citizenVisas[citizenAddress].push(\r\n            CitizenVisa(visaAgency, citizenAddress, citizenPassportAddress, foreignVisaAgencyBranchId, foreignVisaAgencyId,\r\n            issuanceDate, issuanceExpiry, 0, 0));\r\n\r\n        uint visaIndex = citizenVisas[citizenAddress].length - 1;\r\n        pvCitizenVisas[visaAgency].push(PvCitizenVisa(citizenAddress, visaIndex));\r\n\r\n    }\r\n\r\n    function createCitizenImmigration(address citizenVisaAddress, address citizenAddress, string memory immigrationName,\r\n        string memory branchId, uint256 immigrationTime, uint isCheckIn) public {\r\n\r\n        address immigration = msg.sender;\r\n        require(citizens[immigration].userType == 117, \"$Not Authorized for Immigration Request Creation$\");\r\n\r\n        citizenImmigrations[citizenAddress].push(\r\n            CitizenImmigration(immigration, citizenVisaAddress, citizenAddress, immigrationName, branchId,\r\n            immigrationTime, isCheckIn, 0, 0));\r\n\r\n        uint immigrationIndex = citizenImmigrations[citizenAddress].length - 1;\r\n        pvCitizenImmigrations[immigration].push(PvCitizenImmigration(citizenAddress, immigrationIndex));\r\n    }\r\n\r\n    function getCitizenPassport(address citizenAddress) public view returns (CitizenPassport memory) {\r\n\r\n        Citizen memory citizen = citizens[citizenAddress];\r\n        require(citizen.passportIndex >= 0, \"$No Passport Found$\");\r\n        CitizenPassport memory citizenPassport = citizenPassports[uint256(citizen.passportIndex)];\r\n\r\n        return citizenPassport;\r\n    }\r\n\r\n    function getCitizenVisas(address citizen) public view returns (CitizenVisa[] memory) {\r\n        CitizenVisa[] memory visas = new CitizenVisa[](citizenVisas[citizen].length);\r\n        for (uint i = 0; i < citizenVisas[citizen].length; i++) {\r\n            CitizenVisa storage visa = citizenVisas[citizen][i];\r\n            visas[i] = visa;\r\n        }\r\n        return visas;\r\n    }\r\n\r\n    function getCitizenImmigrations(address citizen) public view returns (CitizenImmigration[] memory) {\r\n        CitizenImmigration[] memory immigrations = new CitizenImmigration[](citizenImmigrations[citizen].length);\r\n        for (uint i = 0; i < citizenImmigrations[citizen].length; i++) {\r\n            CitizenImmigration storage immigration = citizenImmigrations[citizen][i];\r\n            immigrations[i] = immigration;\r\n        }\r\n        return immigrations;\r\n    }\r\n\r\n    function signPassport(uint index, uint signed) public {\r\n        address user = msg.sender;\r\n        require(citizens[user].userType == 113, \"$Not Authorized for Passport Creation$\");\r\n\r\n        CitizenPassport memory passport = citizenPassports[index];\r\n        passport.signed = signed;\r\n        passport.signedDate = block.timestamp;\r\n        citizenPassports[index] = passport;\r\n    }\r\n\r\n    function signVisa(uint index, uint signed) public {\r\n        address user = msg.sender;\r\n        CitizenVisa memory visa = citizenVisas[user][index];\r\n        visa.signed = signed;\r\n        visa.signedDate = block.timestamp;\r\n        citizenVisas[user][index] = visa;\r\n    }\r\n\r\n    function signImmigration(uint index, uint signed) public {\r\n        address user = msg.sender;\r\n        CitizenImmigration memory immigration = citizenImmigrations[user][index];\r\n        immigration.signed = signed;\r\n        immigration.signedDate = block.timestamp;\r\n        citizenImmigrations[user][index] = immigration;\r\n    }\r\n\r\n\r\n}\r\n",
  "sourcePath": "D:\\AJZ\\Personal\\FAST-MS\\Semester4\\MS-Project\\ProjectProposal\\GitLab\\ms-fyp-mircoservice\\Blockchain-NodeJs\\apis\\pv\\contracts\\PvContract.sol",
  "compiler": {
    "name": "solc",
    "version": "0.5.16+commit.9c3226ce.Emscripten.clang"
  },
  "schemaVersion": "3.4.10",
  "updatedAt": "2023-01-01T16:23:51.466Z",
  "networkType": "ethereum",
  "devdoc": {
    "methods": {}
  },
  "userdoc": {
    "methods": {}
  }
}